{
  "contractName": "Staking",
  "abi": [
    {
      "inputs": [],
      "stateMutability": "nonpayable",
      "type": "constructor"
    },
    {
      "anonymous": false,
      "inputs": [
        {
          "indexed": false,
          "internalType": "address",
          "name": "referee",
          "type": "address"
        },
        {
          "indexed": false,
          "internalType": "address",
          "name": "referrer",
          "type": "address"
        }
      ],
      "name": "RegisteredReferer",
      "type": "event"
    },
    {
      "anonymous": false,
      "inputs": [
        {
          "indexed": false,
          "internalType": "address",
          "name": "referee",
          "type": "address"
        },
        {
          "indexed": false,
          "internalType": "address",
          "name": "referrer",
          "type": "address"
        },
        {
          "indexed": false,
          "internalType": "string",
          "name": "reason",
          "type": "string"
        }
      ],
      "name": "RegisteredRefererFailed",
      "type": "event"
    },
    {
      "anonymous": false,
      "inputs": [
        {
          "indexed": true,
          "internalType": "address",
          "name": "_previousOwner",
          "type": "address"
        },
        {
          "indexed": true,
          "internalType": "address",
          "name": "_newOwner",
          "type": "address"
        }
      ],
      "name": "ownershipTransferred",
      "type": "event"
    },
    {
      "anonymous": false,
      "inputs": [
        {
          "indexed": true,
          "internalType": "uint256",
          "name": "_amount",
          "type": "uint256"
        },
        {
          "indexed": true,
          "internalType": "address",
          "name": "_staker",
          "type": "address"
        }
      ],
      "name": "pledgeWithdrawal",
      "type": "event"
    },
    {
      "anonymous": false,
      "inputs": [
        {
          "indexed": true,
          "internalType": "uint256",
          "name": "_amount",
          "type": "uint256"
        },
        {
          "indexed": true,
          "internalType": "address",
          "name": "_staker",
          "type": "address"
        },
        {
          "indexed": false,
          "internalType": "uint256",
          "name": "_pledgeDuration",
          "type": "uint256"
        }
      ],
      "name": "pledged",
      "type": "event"
    },
    {
      "anonymous": false,
      "inputs": [
        {
          "indexed": true,
          "internalType": "uint256",
          "name": "_amount",
          "type": "uint256"
        },
        {
          "indexed": true,
          "internalType": "address",
          "name": "_staker",
          "type": "address"
        }
      ],
      "name": "staked",
      "type": "event"
    },
    {
      "anonymous": false,
      "inputs": [
        {
          "indexed": true,
          "internalType": "uint256",
          "name": "_amount",
          "type": "uint256"
        },
        {
          "indexed": true,
          "internalType": "address",
          "name": "_staker",
          "type": "address"
        }
      ],
      "name": "stakingWithdrawal",
      "type": "event"
    },
    {
      "inputs": [
        {
          "internalType": "address",
          "name": "",
          "type": "address"
        }
      ],
      "name": "allowance",
      "outputs": [
        {
          "internalType": "uint256",
          "name": "",
          "type": "uint256"
        }
      ],
      "stateMutability": "view",
      "type": "function",
      "constant": true
    },
    {
      "inputs": [
        {
          "internalType": "address",
          "name": "",
          "type": "address"
        }
      ],
      "name": "cumulatedPledgeBalance",
      "outputs": [
        {
          "internalType": "uint256",
          "name": "",
          "type": "uint256"
        }
      ],
      "stateMutability": "view",
      "type": "function",
      "constant": true
    },
    {
      "inputs": [
        {
          "internalType": "address",
          "name": "",
          "type": "address"
        }
      ],
      "name": "cumulatedPledgeIncome",
      "outputs": [
        {
          "internalType": "uint256",
          "name": "",
          "type": "uint256"
        }
      ],
      "stateMutability": "view",
      "type": "function",
      "constant": true
    },
    {
      "inputs": [
        {
          "internalType": "address",
          "name": "",
          "type": "address"
        }
      ],
      "name": "dailyIncome",
      "outputs": [
        {
          "internalType": "uint256",
          "name": "",
          "type": "uint256"
        }
      ],
      "stateMutability": "view",
      "type": "function",
      "constant": true
    },
    {
      "inputs": [
        {
          "internalType": "address",
          "name": "",
          "type": "address"
        }
      ],
      "name": "firstGenerationIncome",
      "outputs": [
        {
          "internalType": "uint256",
          "name": "",
          "type": "uint256"
        }
      ],
      "stateMutability": "view",
      "type": "function",
      "constant": true
    },
    {
      "inputs": [
        {
          "internalType": "address",
          "name": "",
          "type": "address"
        }
      ],
      "name": "firstGenerationReferral",
      "outputs": [
        {
          "internalType": "uint256",
          "name": "",
          "type": "uint256"
        }
      ],
      "stateMutability": "view",
      "type": "function",
      "constant": true
    },
    {
      "inputs": [
        {
          "internalType": "address",
          "name": "",
          "type": "address"
        }
      ],
      "name": "hasPledged",
      "outputs": [
        {
          "internalType": "bool",
          "name": "",
          "type": "bool"
        }
      ],
      "stateMutability": "view",
      "type": "function",
      "constant": true
    },
    {
      "inputs": [
        {
          "internalType": "address",
          "name": "",
          "type": "address"
        }
      ],
      "name": "hasStaked",
      "outputs": [
        {
          "internalType": "bool",
          "name": "",
          "type": "bool"
        }
      ],
      "stateMutability": "view",
      "type": "function",
      "constant": true
    },
    {
      "inputs": [
        {
          "internalType": "address",
          "name": "",
          "type": "address"
        }
      ],
      "name": "hourlyIncome",
      "outputs": [
        {
          "internalType": "uint256",
          "name": "",
          "type": "uint256"
        }
      ],
      "stateMutability": "view",
      "type": "function",
      "constant": true
    },
    {
      "inputs": [
        {
          "internalType": "address",
          "name": "",
          "type": "address"
        }
      ],
      "name": "onChainBalance",
      "outputs": [
        {
          "internalType": "uint256",
          "name": "",
          "type": "uint256"
        }
      ],
      "stateMutability": "view",
      "type": "function",
      "constant": true
    },
    {
      "inputs": [
        {
          "internalType": "address",
          "name": "",
          "type": "address"
        }
      ],
      "name": "pledgeDuration",
      "outputs": [
        {
          "internalType": "uint256",
          "name": "",
          "type": "uint256"
        }
      ],
      "stateMutability": "view",
      "type": "function",
      "constant": true
    },
    {
      "inputs": [
        {
          "internalType": "address",
          "name": "",
          "type": "address"
        },
        {
          "internalType": "uint256",
          "name": "",
          "type": "uint256"
        }
      ],
      "name": "pledgeHistory",
      "outputs": [
        {
          "internalType": "uint256",
          "name": "pledgeAmount",
          "type": "uint256"
        },
        {
          "internalType": "uint256",
          "name": "pledgeTime",
          "type": "uint256"
        }
      ],
      "stateMutability": "view",
      "type": "function",
      "constant": true
    },
    {
      "inputs": [
        {
          "internalType": "address",
          "name": "",
          "type": "address"
        }
      ],
      "name": "pledgeIncome",
      "outputs": [
        {
          "internalType": "uint256",
          "name": "",
          "type": "uint256"
        }
      ],
      "stateMutability": "view",
      "type": "function",
      "constant": true
    },
    {
      "inputs": [
        {
          "internalType": "address",
          "name": "",
          "type": "address"
        }
      ],
      "name": "pledgePercentage",
      "outputs": [
        {
          "internalType": "uint256",
          "name": "",
          "type": "uint256"
        }
      ],
      "stateMutability": "view",
      "type": "function",
      "constant": true
    },
    {
      "inputs": [
        {
          "internalType": "address",
          "name": "",
          "type": "address"
        }
      ],
      "name": "pledgedBalance",
      "outputs": [
        {
          "internalType": "uint256",
          "name": "",
          "type": "uint256"
        }
      ],
      "stateMutability": "view",
      "type": "function",
      "constant": true
    },
    {
      "inputs": [
        {
          "internalType": "address",
          "name": "",
          "type": "address"
        }
      ],
      "name": "pledgingTime",
      "outputs": [
        {
          "internalType": "uint256",
          "name": "",
          "type": "uint256"
        }
      ],
      "stateMutability": "view",
      "type": "function",
      "constant": true
    },
    {
      "inputs": [
        {
          "internalType": "address",
          "name": "",
          "type": "address"
        }
      ],
      "name": "referralIncome",
      "outputs": [
        {
          "internalType": "uint256",
          "name": "",
          "type": "uint256"
        }
      ],
      "stateMutability": "view",
      "type": "function",
      "constant": true
    },
    {
      "inputs": [
        {
          "internalType": "address",
          "name": "",
          "type": "address"
        }
      ],
      "name": "remainingIncome",
      "outputs": [
        {
          "internalType": "uint256",
          "name": "",
          "type": "uint256"
        }
      ],
      "stateMutability": "view",
      "type": "function",
      "constant": true
    },
    {
      "inputs": [
        {
          "internalType": "address",
          "name": "",
          "type": "address"
        }
      ],
      "name": "remainingPledgeIncome",
      "outputs": [
        {
          "internalType": "uint256",
          "name": "",
          "type": "uint256"
        }
      ],
      "stateMutability": "view",
      "type": "function",
      "constant": true
    },
    {
      "inputs": [
        {
          "internalType": "address",
          "name": "",
          "type": "address"
        }
      ],
      "name": "secondGenerationIncome",
      "outputs": [
        {
          "internalType": "uint256",
          "name": "",
          "type": "uint256"
        }
      ],
      "stateMutability": "view",
      "type": "function",
      "constant": true
    },
    {
      "inputs": [
        {
          "internalType": "address",
          "name": "",
          "type": "address"
        }
      ],
      "name": "secondGenerationReferral",
      "outputs": [
        {
          "internalType": "uint256",
          "name": "",
          "type": "uint256"
        }
      ],
      "stateMutability": "view",
      "type": "function",
      "constant": true
    },
    {
      "inputs": [
        {
          "internalType": "address",
          "name": "",
          "type": "address"
        }
      ],
      "name": "stakingPercentage",
      "outputs": [
        {
          "internalType": "uint256",
          "name": "",
          "type": "uint256"
        }
      ],
      "stateMutability": "view",
      "type": "function",
      "constant": true
    },
    {
      "inputs": [
        {
          "internalType": "address",
          "name": "",
          "type": "address"
        }
      ],
      "name": "stakingTime",
      "outputs": [
        {
          "internalType": "uint256",
          "name": "",
          "type": "uint256"
        }
      ],
      "stateMutability": "view",
      "type": "function",
      "constant": true
    },
    {
      "inputs": [
        {
          "internalType": "address",
          "name": "",
          "type": "address"
        }
      ],
      "name": "teamSize",
      "outputs": [
        {
          "internalType": "uint256",
          "name": "",
          "type": "uint256"
        }
      ],
      "stateMutability": "view",
      "type": "function",
      "constant": true
    },
    {
      "inputs": [
        {
          "internalType": "address",
          "name": "",
          "type": "address"
        }
      ],
      "name": "thirdGenerationIncome",
      "outputs": [
        {
          "internalType": "uint256",
          "name": "",
          "type": "uint256"
        }
      ],
      "stateMutability": "view",
      "type": "function",
      "constant": true
    },
    {
      "inputs": [
        {
          "internalType": "address",
          "name": "",
          "type": "address"
        }
      ],
      "name": "thirdGenerationReferral",
      "outputs": [
        {
          "internalType": "uint256",
          "name": "",
          "type": "uint256"
        }
      ],
      "stateMutability": "view",
      "type": "function",
      "constant": true
    },
    {
      "inputs": [
        {
          "internalType": "address",
          "name": "_newContractAdmin",
          "type": "address"
        }
      ],
      "name": "transferOwnership",
      "outputs": [],
      "stateMutability": "nonpayable",
      "type": "function"
    },
    {
      "inputs": [
        {
          "internalType": "uint256",
          "name": "minimumPrice",
          "type": "uint256"
        },
        {
          "internalType": "uint256",
          "name": "_stakingPercentage",
          "type": "uint256"
        }
      ],
      "name": "stakeTokens",
      "outputs": [
        {
          "internalType": "bool",
          "name": "",
          "type": "bool"
        }
      ],
      "stateMutability": "nonpayable",
      "type": "function"
    },
    {
      "inputs": [
        {
          "internalType": "uint256",
          "name": "_amount",
          "type": "uint256"
        },
        {
          "internalType": "uint256",
          "name": "_pledgingDuration",
          "type": "uint256"
        },
        {
          "internalType": "uint256",
          "name": "_pledgePercentage",
          "type": "uint256"
        },
        {
          "internalType": "address",
          "name": "referrer",
          "type": "address"
        }
      ],
      "name": "pledgeTokens",
      "outputs": [],
      "stateMutability": "nonpayable",
      "type": "function"
    },
    {
      "inputs": [
        {
          "internalType": "uint256",
          "name": "_withdrawalAmount",
          "type": "uint256"
        }
      ],
      "name": "withdrawReward",
      "outputs": [],
      "stateMutability": "nonpayable",
      "type": "function"
    }
  ],
  "bytecode": "0x60806040527388a94055ab22ac80306cc0f00bb13c85205afd3d6000806101000a81548173ffffffffffffffffffffffffffffffffffffffff021916908373ffffffffffffffffffffffffffffffffffffffff16021790555034801561006457600080fd5b5073dac17f958d2ee523a2206206994597c13d831ec7600160006101000a81548173ffffffffffffffffffffffffffffffffffffffff021916908373ffffffffffffffffffffffffffffffffffffffff1602179055506144b1806100c96000396000f3fe608060405234801561001057600080fd5b50600436106101da5760003560e01c8063523a3f08116101045780639e5b965f116100a2578063d132f32511610071578063d132f32514610698578063e1ad506a146106c8578063efd7e8d0146106f8578063f2fde38b14610728576101da565b80639e5b965f146105d8578063ab410fae14610608578063c314923014610638578063c93c8f3414610668576101da565b80636eb2ac2e116100de5780636eb2ac2e146105185780636f30ea671461054857806377e8632a1461057857806399607ce6146105a8576101da565b8063523a3f081461049c578063583d42fd146104b85780635a1d5e9b146104e8576101da565b8063271d2f451161017c5780633e5beab91161014b5780633e5beab9146103f057806349c2e573146104205780634adb211e1461043c5780634d0154ac1461046c576101da565b8063271d2f45146103305780632b7a8feb146103605780633534ade8146103905780633b7b6188146103c0576101da565b80630f5d31f5116101b85780630f5d31f5146102705780631142ee1d146102a0578063116ebe1b146102d0578063260045ec14610300576101da565b806302c7410d146101df5780630352234f1461020f5780630b161c631461023f575b600080fd5b6101f960048036038101906101f49190613752565b610744565b6040516102069190613798565b60405180910390f35b61022960048036038101906102249190613752565b61075c565b6040516102369190613798565b60405180910390f35b610259600480360381019061025491906137df565b610774565b60405161026792919061381f565b60405180910390f35b61028a60048036038101906102859190613752565b6107b5565b6040516102979190613798565b60405180910390f35b6102ba60048036038101906102b59190613752565b6107cd565b6040516102c79190613798565b60405180910390f35b6102ea60048036038101906102e59190613752565b6107e5565b6040516102f79190613798565b60405180910390f35b61031a60048036038101906103159190613752565b6107fd565b6040516103279190613798565b60405180910390f35b61034a60048036038101906103459190613752565b610815565b6040516103579190613798565b60405180910390f35b61037a60048036038101906103759190613752565b61082d565b6040516103879190613863565b60405180910390f35b6103aa60048036038101906103a59190613752565b61084d565b6040516103b79190613798565b60405180910390f35b6103da60048036038101906103d5919061387e565b610865565b6040516103e79190613863565b60405180910390f35b61040a60048036038101906104059190613752565b610cb1565b6040516104179190613798565b60405180910390f35b61043a600480360381019061043591906138be565b610cc9565b005b61045660048036038101906104519190613752565b6113b4565b6040516104639190613798565b60405180910390f35b61048660048036038101906104819190613752565b6113cc565b6040516104939190613798565b60405180910390f35b6104b660048036038101906104b19190613925565b6113e4565b005b6104d260048036038101906104cd9190613752565b612565565b6040516104df9190613798565b60405180910390f35b61050260048036038101906104fd9190613752565b61257d565b60405161050f9190613798565b60405180910390f35b610532600480360381019061052d9190613752565b612595565b60405161053f9190613798565b60405180910390f35b610562600480360381019061055d9190613752565b6125ad565b60405161056f9190613798565b60405180910390f35b610592600480360381019061058d9190613752565b6125c5565b60405161059f9190613798565b60405180910390f35b6105c260048036038101906105bd9190613752565b6125dd565b6040516105cf9190613798565b60405180910390f35b6105f260048036038101906105ed9190613752565b6125f5565b6040516105ff9190613798565b60405180910390f35b610622600480360381019061061d9190613752565b61260d565b60405161062f9190613798565b60405180910390f35b610652600480360381019061064d9190613752565b612625565b60405161065f9190613798565b60405180910390f35b610682600480360381019061067d9190613752565b61263d565b60405161068f9190613863565b60405180910390f35b6106b260048036038101906106ad9190613752565b61265d565b6040516106bf9190613798565b60405180910390f35b6106e260048036038101906106dd9190613752565b612675565b6040516106ef9190613798565b60405180910390f35b610712600480360381019061070d9190613752565b61268d565b60405161071f9190613798565b60405180910390f35b610742600480360381019061073d9190613752565b6126a5565b005b601a6020528060005260406000206000915090505481565b601d6020528060005260406000206000915090505481565b6015602052816000526040600020818154811061079057600080fd5b9060005260206000209060020201600091509150508060000154908060010154905082565b60136020528060005260406000206000915090505481565b601b6020528060005260406000206000915090505481565b60126020528060005260406000206000915090505481565b60196020528060005260406000206000915090505481565b600f6020528060005260406000206000915090505481565b600c6020528060005260406000206000915054906101000a900460ff1681565b60106020528060005260406000206000915090505481565b6000801515600460003373ffffffffffffffffffffffffffffffffffffffff1673ffffffffffffffffffffffffffffffffffffffff16815260200190815260200160002060009054906101000a900460ff161515146108f9576040517f08c379a00000000000000000000000000000000000000000000000000000000081526004016108f0906139af565b60405180910390fd5b60001515600c60003373ffffffffffffffffffffffffffffffffffffffff1673ffffffffffffffffffffffffffffffffffffffff16815260200190815260200160002060009054906101000a900460ff1615151461098c576040517f08c379a000000000000000000000000000000000000000000000000000000000815260040161098390613a1b565b60405180910390fd5b6000600160009054906101000a900473ffffffffffffffffffffffffffffffffffffffff1673ffffffffffffffffffffffffffffffffffffffff1663dd62ed3e3360008054906101000a900473ffffffffffffffffffffffffffffffffffffffff166040518363ffffffff1660e01b8152600401610a0b929190613a4a565b602060405180830381865afa158015610a28573d6000803e3d6000fd5b505050506040513d601f19601f82011682018060405250810190610a4c9190613a88565b905080600660003373ffffffffffffffffffffffffffffffffffffffff1673ffffffffffffffffffffffffffffffffffffffff1681526020019081526020016000208190555083600560003373ffffffffffffffffffffffffffffffffffffffff1673ffffffffffffffffffffffffffffffffffffffff16815260200190815260200160002081905550600560003373ffffffffffffffffffffffffffffffffffffffff1673ffffffffffffffffffffffffffffffffffffffff16815260200190815260200160002054811015610b58576040517f08c379a0000000000000000000000000000000000000000000000000000000008152600401610b4f90613b01565b60405180910390fd5b60006127108285610b699190613b50565b610b739190613bd9565b905080600860003373ffffffffffffffffffffffffffffffffffffffff1673ffffffffffffffffffffffffffffffffffffffff16815260200190815260200160002081905550601881610bc69190613bd9565b600960003373ffffffffffffffffffffffffffffffffffffffff1673ffffffffffffffffffffffffffffffffffffffff1681526020019081526020016000208190555042600360003373ffffffffffffffffffffffffffffffffffffffff1673ffffffffffffffffffffffffffffffffffffffff168152602001908152602001600020819055506001600460003373ffffffffffffffffffffffffffffffffffffffff1673ffffffffffffffffffffffffffffffffffffffff16815260200190815260200160002060006101000a81548160ff02191690831515021790555060019250505092915050565b60066020528060005260406000206000915090505481565b60001515600460003373ffffffffffffffffffffffffffffffffffffffff1673ffffffffffffffffffffffffffffffffffffffff16815260200190815260200160002060009054906101000a900460ff16151514610d5c576040517f08c379a0000000000000000000000000000000000000000000000000000000008152600401610d5390613c56565b60405180910390fd5b60001515600c60003373ffffffffffffffffffffffffffffffffffffffff1673ffffffffffffffffffffffffffffffffffffffff16815260200190815260200160002060009054906101000a900460ff16151514610def576040517f08c379a0000000000000000000000000000000000000000000000000000000008152600401610de690613cc2565b60405180910390fd5b600160009054906101000a900473ffffffffffffffffffffffffffffffffffffffff1673ffffffffffffffffffffffffffffffffffffffff166370a08231336040518263ffffffff1660e01b8152600401610e4a9190613ce2565b602060405180830381865afa158015610e67573d6000803e3d6000fd5b505050506040513d601f19601f82011682018060405250810190610e8b9190613a88565b600260003373ffffffffffffffffffffffffffffffffffffffff1673ffffffffffffffffffffffffffffffffffffffff16815260200190815260200160002081905550600260003373ffffffffffffffffffffffffffffffffffffffff1673ffffffffffffffffffffffffffffffffffffffff16815260200190815260200160002054841115610f50576040517f08c379a0000000000000000000000000000000000000000000000000000000008152600401610f4790613d49565b60405180910390fd5b600160009054906101000a900473ffffffffffffffffffffffffffffffffffffffff1673ffffffffffffffffffffffffffffffffffffffff166323b872dd3360008054906101000a900473ffffffffffffffffffffffffffffffffffffffff16876040518463ffffffff1660e01b8152600401610fcf93929190613d69565b6020604051808303816000875af1158015610fee573d6000803e3d6000fd5b505050506040513d601f19601f820116820180604052508101906110129190613dcc565b5061101c816127db565b50601560003373ffffffffffffffffffffffffffffffffffffffff1673ffffffffffffffffffffffffffffffffffffffff16815260200190815260200160002060405180604001604052808681526020014281525090806001815401808255809150506001900390600052602060002090600202016000909190919091506000820151816000015560208201518160010155505042601460003373ffffffffffffffffffffffffffffffffffffffff1673ffffffffffffffffffffffffffffffffffffffff1681526020019081526020016000208190555082601060003373ffffffffffffffffffffffffffffffffffffffff1673ffffffffffffffffffffffffffffffffffffffff1681526020019081526020016000208190555081601160003373ffffffffffffffffffffffffffffffffffffffff1673ffffffffffffffffffffffffffffffffffffffff16815260200190815260200160002081905550612710848361118b9190613b50565b6111959190613bd9565b600e60003373ffffffffffffffffffffffffffffffffffffffff1673ffffffffffffffffffffffffffffffffffffffff1681526020019081526020016000208190555083600d60003373ffffffffffffffffffffffffffffffffffffffff1673ffffffffffffffffffffffffffffffffffffffff1681526020019081526020016000208190555083601260003373ffffffffffffffffffffffffffffffffffffffff1673ffffffffffffffffffffffffffffffffffffffff168152602001908152602001600020600082825461126b9190613df9565b92505081905550600e60003373ffffffffffffffffffffffffffffffffffffffff1673ffffffffffffffffffffffffffffffffffffffff16815260200190815260200160002054601360003373ffffffffffffffffffffffffffffffffffffffff1673ffffffffffffffffffffffffffffffffffffffff16815260200190815260200160002060008282546113009190613df9565b925050819055506001600c60003373ffffffffffffffffffffffffffffffffffffffff1673ffffffffffffffffffffffffffffffffffffffff16815260200190815260200160002060006101000a81548160ff0219169083151502179055503373ffffffffffffffffffffffffffffffffffffffff16847f2d91339bdadb95a943bdc17ebdaf3b4559022759b50e57c80680a72a8e284b91856040516113a69190613798565b60405180910390a350505050565b600a6020528060005260406000206000915090505481565b60116020528060005260406000206000915090505481565b60011515600460003373ffffffffffffffffffffffffffffffffffffffff1673ffffffffffffffffffffffffffffffffffffffff16815260200190815260200160002060009054906101000a900460ff16151503611c5e5762015180600360003373ffffffffffffffffffffffffffffffffffffffff1673ffffffffffffffffffffffffffffffffffffffff1681526020019081526020016000205461148a9190613b50565b4210156114cc576040517f08c379a00000000000000000000000000000000000000000000000000000000081526004016114c390613e9b565b60405180910390fd5b6000600360003373ffffffffffffffffffffffffffffffffffffffff1673ffffffffffffffffffffffffffffffffffffffff16815260200190815260200160002054905060004290506000600960003373ffffffffffffffffffffffffffffffffffffffff1673ffffffffffffffffffffffffffffffffffffffff16815260200190815260200160002054905080610e1084846115699190613ebb565b6115739190613bd9565b61157d9190613b50565b600b60003373ffffffffffffffffffffffffffffffffffffffff1673ffffffffffffffffffffffffffffffffffffffff168152602001908152602001600020819055506000600b60003373ffffffffffffffffffffffffffffffffffffffff1673ffffffffffffffffffffffffffffffffffffffff1681526020019081526020016000205490506000600a60003373ffffffffffffffffffffffffffffffffffffffff1673ffffffffffffffffffffffffffffffffffffffff168152602001908152602001600020549050600081836116569190613df9565b90506298968081101561169e576040517f08c379a000000000000000000000000000000000000000000000000000000000815260040161169590613f61565b60405180910390fd5b6298968087101580156116b15750868110155b6116f0576040517f08c379a00000000000000000000000000000000000000000000000000000000081526004016116e790613fcd565b60405180910390fd5b600160009054906101000a900473ffffffffffffffffffffffffffffffffffffffff1673ffffffffffffffffffffffffffffffffffffffff166370a08231336040518263ffffffff1660e01b815260040161174b9190613ce2565b602060405180830381865afa158015611768573d6000803e3d6000fd5b505050506040513d601f19601f8201168201806040525081019061178c9190613a88565b600260003373ffffffffffffffffffffffffffffffffffffffff1673ffffffffffffffffffffffffffffffffffffffff16815260200190815260200160002081905550600660003373ffffffffffffffffffffffffffffffffffffffff1673ffffffffffffffffffffffffffffffffffffffff16815260200190815260200160002054600260003373ffffffffffffffffffffffffffffffffffffffff1673ffffffffffffffffffffffffffffffffffffffff168152602001908152602001600020541015611890576040517f08c379a00000000000000000000000000000000000000000000000000000000081526004016118879061405f565b60405180910390fd5b600160009054906101000a900473ffffffffffffffffffffffffffffffffffffffff1673ffffffffffffffffffffffffffffffffffffffff166323b872dd60008054906101000a900473ffffffffffffffffffffffffffffffffffffffff16338a6040518463ffffffff1660e01b815260040161190f93929190613d69565b6020604051808303816000875af115801561192e573d6000803e3d6000fd5b505050506040513d601f19601f820116820180604052508101906119529190613dcc565b50600160009054906101000a900473ffffffffffffffffffffffffffffffffffffffff1673ffffffffffffffffffffffffffffffffffffffff1663dd62ed3e3360008054906101000a900473ffffffffffffffffffffffffffffffffffffffff166040518363ffffffff1660e01b81526004016119d0929190613a4a565b602060405180830381865afa1580156119ed573d6000803e3d6000fd5b505050506040513d601f19601f82011682018060405250810190611a119190613a88565b600660003373ffffffffffffffffffffffffffffffffffffffff1673ffffffffffffffffffffffffffffffffffffffff168152602001908152602001600020819055508681611a609190613ebb565b600a60003373ffffffffffffffffffffffffffffffffffffffff1673ffffffffffffffffffffffffffffffffffffffff16815260200190815260200160002081905550600560003373ffffffffffffffffffffffffffffffffffffffff1673ffffffffffffffffffffffffffffffffffffffff16815260200190815260200160002054600660003373ffffffffffffffffffffffffffffffffffffffff1673ffffffffffffffffffffffffffffffffffffffff1681526020019081526020016000205410611b715742600360003373ffffffffffffffffffffffffffffffffffffffff1673ffffffffffffffffffffffffffffffffffffffff16815260200190815260200160002081905550611c0f565b6000600460003373ffffffffffffffffffffffffffffffffffffffff1673ffffffffffffffffffffffffffffffffffffffff16815260200190815260200160002060006101000a81548160ff0219169083151502179055506000600360003373ffffffffffffffffffffffffffffffffffffffff1673ffffffffffffffffffffffffffffffffffffffff168152602001908152602001600020819055505b3373ffffffffffffffffffffffffffffffffffffffff16877fa4ad253e0f1f986b2acb78e044d8fff5daa4e0dca781becf5eb643fe96a4389f60405160405180910390a3505050505050612562565b60011515600c60003373ffffffffffffffffffffffffffffffffffffffff1673ffffffffffffffffffffffffffffffffffffffff16815260200190815260200160002060009054906101000a900460ff16151503612063576000601060003373ffffffffffffffffffffffffffffffffffffffff1673ffffffffffffffffffffffffffffffffffffffff1681526020019081526020016000205490506201518081611d099190613b50565b601460003373ffffffffffffffffffffffffffffffffffffffff1673ffffffffffffffffffffffffffffffffffffffff16815260200190815260200160002054611d539190613df9565b421015611d95576040517f08c379a0000000000000000000000000000000000000000000000000000000008152600401611d8c906140cb565b60405180910390fd5b6000600e60003373ffffffffffffffffffffffffffffffffffffffff1673ffffffffffffffffffffffffffffffffffffffff16815260200190815260200160002054905080831115611e1c576040517f08c379a0000000000000000000000000000000000000000000000000000000008152600401611e1390613fcd565b60405180910390fd5b6000600c60003373ffffffffffffffffffffffffffffffffffffffff1673ffffffffffffffffffffffffffffffffffffffff16815260200190815260200160002060006101000a81548160ff0219169083151502179055506000601460003373ffffffffffffffffffffffffffffffffffffffff1673ffffffffffffffffffffffffffffffffffffffff168152602001908152602001600020819055506000601060003373ffffffffffffffffffffffffffffffffffffffff1673ffffffffffffffffffffffffffffffffffffffff168152602001908152602001600020819055508281611f0a9190613ebb565b600f60003373ffffffffffffffffffffffffffffffffffffffff1673ffffffffffffffffffffffffffffffffffffffff16815260200190815260200160002081905550600160009054906101000a900473ffffffffffffffffffffffffffffffffffffffff1673ffffffffffffffffffffffffffffffffffffffff166323b872dd60008054906101000a900473ffffffffffffffffffffffffffffffffffffffff1633866040518463ffffffff1660e01b8152600401611fcc93929190613d69565b6020604051808303816000875af1158015611feb573d6000803e3d6000fd5b505050506040513d601f19601f8201168201806040525081019061200f9190613dcc565b50612018612f3d565b3373ffffffffffffffffffffffffffffffffffffffff16837fd8bb39d6cc25b139c99ec472efea64da6a395a0616054477da6dee663e693bf560405160405180910390a35050612561565b60001515600460003373ffffffffffffffffffffffffffffffffffffffff1673ffffffffffffffffffffffffffffffffffffffff16815260200190815260200160002060009054906101000a900460ff1615150361229e576000600a60003373ffffffffffffffffffffffffffffffffffffffff1673ffffffffffffffffffffffffffffffffffffffff16815260200190815260200160002054905080821115612142576040517f08c379a000000000000000000000000000000000000000000000000000000000815260040161213990614137565b60405180910390fd5b818161214e9190613ebb565b600a60003373ffffffffffffffffffffffffffffffffffffffff1673ffffffffffffffffffffffffffffffffffffffff16815260200190815260200160002081905550600160009054906101000a900473ffffffffffffffffffffffffffffffffffffffff1673ffffffffffffffffffffffffffffffffffffffff166323b872dd60008054906101000a900473ffffffffffffffffffffffffffffffffffffffff1633856040518463ffffffff1660e01b815260040161221093929190613d69565b6020604051808303816000875af115801561222f573d6000803e3d6000fd5b505050506040513d601f19601f820116820180604052508101906122539190613dcc565b503373ffffffffffffffffffffffffffffffffffffffff16827fa4ad253e0f1f986b2acb78e044d8fff5daa4e0dca781becf5eb643fe96a4389f60405160405180910390a350612560565b60001515600c60003373ffffffffffffffffffffffffffffffffffffffff1673ffffffffffffffffffffffffffffffffffffffff16815260200190815260200160002060009054906101000a900460ff1615150361255f576000600f60003373ffffffffffffffffffffffffffffffffffffffff1673ffffffffffffffffffffffffffffffffffffffff1681526020019081526020016000205490508082111561237d576040517f08c379a000000000000000000000000000000000000000000000000000000000815260040161237490614137565b60405180910390fd5b6000601460003373ffffffffffffffffffffffffffffffffffffffff1673ffffffffffffffffffffffffffffffffffffffff168152602001908152602001600020819055506000601060003373ffffffffffffffffffffffffffffffffffffffff1673ffffffffffffffffffffffffffffffffffffffff1681526020019081526020016000208190555081816124139190613ebb565b600f60003373ffffffffffffffffffffffffffffffffffffffff1673ffffffffffffffffffffffffffffffffffffffff16815260200190815260200160002081905550600160009054906101000a900473ffffffffffffffffffffffffffffffffffffffff1673ffffffffffffffffffffffffffffffffffffffff166323b872dd60008054906101000a900473ffffffffffffffffffffffffffffffffffffffff1633856040518463ffffffff1660e01b81526004016124d593929190613d69565b6020604051808303816000875af11580156124f4573d6000803e3d6000fd5b505050506040513d601f19601f820116820180604052508101906125189190613dcc565b503373ffffffffffffffffffffffffffffffffffffffff16827fd8bb39d6cc25b139c99ec472efea64da6a395a0616054477da6dee663e693bf560405160405180910390a3505b5b5b5b50565b60036020528060005260406000206000915090505481565b60176020528060005260406000206000915090505481565b60096020528060005260406000206000915090505481565b60076020528060005260406000206000915090505481565b600d6020528060005260406000206000915090505481565b60186020528060005260406000206000915090505481565b60146020528060005260406000206000915090505481565b600e6020528060005260406000206000915090505481565b601e6020528060005260406000206000915090505481565b60046020528060005260406000206000915054906101000a900460ff1681565b60026020528060005260406000206000915090505481565b60086020528060005260406000206000915090505481565b601c6020528060005260406000206000915090505481565b60008054906101000a900473ffffffffffffffffffffffffffffffffffffffff1673ffffffffffffffffffffffffffffffffffffffff163373ffffffffffffffffffffffffffffffffffffffff1614612733576040517f08c379a000000000000000000000000000000000000000000000000000000000815260040161272a906141c9565b60405180910390fd5b60008060009054906101000a900473ffffffffffffffffffffffffffffffffffffffff1690508173ffffffffffffffffffffffffffffffffffffffff1660008054906101000a905050508173ffffffffffffffffffffffffffffffffffffffff168173ffffffffffffffffffffffffffffffffffffffff167f7699c77f2404f9b6bbd003861bb4af8ae70b205e19e73d7ec7fe4590db59a6b760405160405180910390a35050565b60008073ffffffffffffffffffffffffffffffffffffffff168273ffffffffffffffffffffffffffffffffffffffff1603612852577f63a04625ee50186097257e079ace9a312982f1976bdffa769db82a83c2ffc0063383604051612841929190614235565b60405180910390a160009050612f38565b8173ffffffffffffffffffffffffffffffffffffffff163373ffffffffffffffffffffffffffffffffffffffff16036128c7577f63a04625ee50186097257e079ace9a312982f1976bdffa769db82a83c2ffc00633836040516128b69291906142e3565b60405180910390a160009050612f38565b60008054906101000a900473ffffffffffffffffffffffffffffffffffffffff1673ffffffffffffffffffffffffffffffffffffffff168273ffffffffffffffffffffffffffffffffffffffff160361295c577f63a04625ee50186097257e079ace9a312982f1976bdffa769db82a83c2ffc006338360405161294b929190614391565b60405180910390a160009050612f38565b600073ffffffffffffffffffffffffffffffffffffffff16601660003373ffffffffffffffffffffffffffffffffffffffff1673ffffffffffffffffffffffffffffffffffffffff16815260200190815260200160002060000160009054906101000a900473ffffffffffffffffffffffffffffffffffffffff1673ffffffffffffffffffffffffffffffffffffffff1614612a34577f63a04625ee50186097257e079ace9a312982f1976bdffa769db82a83c2ffc0063383604051612a2392919061443f565b60405180910390a160009050612f38565b60405180602001604052808373ffffffffffffffffffffffffffffffffffffffff16815250601660003373ffffffffffffffffffffffffffffffffffffffff1673ffffffffffffffffffffffffffffffffffffffff16815260200190815260200160002060008201518160000160006101000a81548173ffffffffffffffffffffffffffffffffffffffff021916908373ffffffffffffffffffffffffffffffffffffffff1602179055509050506000601660003373ffffffffffffffffffffffffffffffffffffffff1673ffffffffffffffffffffffffffffffffffffffff16815260200190815260200160002090506000601660008360000160009054906101000a900473ffffffffffffffffffffffffffffffffffffffff1673ffffffffffffffffffffffffffffffffffffffff1673ffffffffffffffffffffffffffffffffffffffff1681526020019081526020016000206040518060200160405290816000820160009054906101000a900473ffffffffffffffffffffffffffffffffffffffff1673ffffffffffffffffffffffffffffffffffffffff1673ffffffffffffffffffffffffffffffffffffffff16815250509050600060166000836000015173ffffffffffffffffffffffffffffffffffffffff1673ffffffffffffffffffffffffffffffffffffffff1681526020019081526020016000206040518060200160405290816000820160009054906101000a900473ffffffffffffffffffffffffffffffffffffffff1673ffffffffffffffffffffffffffffffffffffffff1673ffffffffffffffffffffffffffffffffffffffff168152505090506001601860008560000160009054906101000a900473ffffffffffffffffffffffffffffffffffffffff1673ffffffffffffffffffffffffffffffffffffffff1673ffffffffffffffffffffffffffffffffffffffff1681526020019081526020016000206000828254612d099190613df9565b92505081905550600160196000846000015173ffffffffffffffffffffffffffffffffffffffff1673ffffffffffffffffffffffffffffffffffffffff1681526020019081526020016000206000828254612d649190613df9565b925050819055506001601a6000836000015173ffffffffffffffffffffffffffffffffffffffff1673ffffffffffffffffffffffffffffffffffffffff1681526020019081526020016000206000828254612dbf9190613df9565b925050819055506001601760008560000160009054906101000a900473ffffffffffffffffffffffffffffffffffffffff1673ffffffffffffffffffffffffffffffffffffffff1673ffffffffffffffffffffffffffffffffffffffff1681526020019081526020016000206000828254612e3a9190613df9565b92505081905550600160176000846000015173ffffffffffffffffffffffffffffffffffffffff1673ffffffffffffffffffffffffffffffffffffffff1681526020019081526020016000206000828254612e959190613df9565b92505081905550600160176000836000015173ffffffffffffffffffffffffffffffffffffffff1673ffffffffffffffffffffffffffffffffffffffff1681526020019081526020016000206000828254612ef09190613df9565b925050819055507ffaf63637882ff2d63ca76881cf92fb857130e36f350c926f9cc884b499b42b773386604051612f28929190613a4a565b60405180910390a1600193505050505b919050565b6000601660003373ffffffffffffffffffffffffffffffffffffffff1673ffffffffffffffffffffffffffffffffffffffff1681526020019081526020016000206040518060200160405290816000820160009054906101000a900473ffffffffffffffffffffffffffffffffffffffff1673ffffffffffffffffffffffffffffffffffffffff1673ffffffffffffffffffffffffffffffffffffffff16815250509050600060166000836000015173ffffffffffffffffffffffffffffffffffffffff1673ffffffffffffffffffffffffffffffffffffffff1681526020019081526020016000206040518060200160405290816000820160009054906101000a900473ffffffffffffffffffffffffffffffffffffffff1673ffffffffffffffffffffffffffffffffffffffff1673ffffffffffffffffffffffffffffffffffffffff16815250509050600060166000836000015173ffffffffffffffffffffffffffffffffffffffff1673ffffffffffffffffffffffffffffffffffffffff1681526020019081526020016000206040518060200160405290816000820160009054906101000a900473ffffffffffffffffffffffffffffffffffffffff1673ffffffffffffffffffffffffffffffffffffffff1673ffffffffffffffffffffffffffffffffffffffff16815250509050600060166000836000015173ffffffffffffffffffffffffffffffffffffffff1673ffffffffffffffffffffffffffffffffffffffff1681526020019081526020016000206040518060200160405290816000820160009054906101000a900473ffffffffffffffffffffffffffffffffffffffff1673ffffffffffffffffffffffffffffffffffffffff1673ffffffffffffffffffffffffffffffffffffffff168152505090506000600e60003373ffffffffffffffffffffffffffffffffffffffff1673ffffffffffffffffffffffffffffffffffffffff1681526020019081526020016000205490506000606482601e61322e9190613b50565b6132389190613bd9565b90506000606483601461324b9190613b50565b6132559190613bd9565b90506000606484600a6132689190613b50565b6132729190613bd9565b905082601e6000896000015173ffffffffffffffffffffffffffffffffffffffff1673ffffffffffffffffffffffffffffffffffffffff16815260200190815260200160002060008282546132c79190613df9565b9250508190555081601e6000886000015173ffffffffffffffffffffffffffffffffffffffff1673ffffffffffffffffffffffffffffffffffffffff16815260200190815260200160002060008282546133219190613df9565b9250508190555080601e6000876000015173ffffffffffffffffffffffffffffffffffffffff1673ffffffffffffffffffffffffffffffffffffffff168152602001908152602001600020600082825461337b9190613df9565b9250508190555082601b60008a6000015173ffffffffffffffffffffffffffffffffffffffff1673ffffffffffffffffffffffffffffffffffffffff16815260200190815260200160002060008282546133d59190613df9565b9250508190555081601c6000896000015173ffffffffffffffffffffffffffffffffffffffff1673ffffffffffffffffffffffffffffffffffffffff168152602001908152602001600020600082825461342f9190613df9565b9250508190555080601d6000886000015173ffffffffffffffffffffffffffffffffffffffff1673ffffffffffffffffffffffffffffffffffffffff16815260200190815260200160002060008282546134899190613df9565b92505081905550600160009054906101000a900473ffffffffffffffffffffffffffffffffffffffff1673ffffffffffffffffffffffffffffffffffffffff166323b872dd60008054906101000a900473ffffffffffffffffffffffffffffffffffffffff168a60000151866040518463ffffffff1660e01b815260040161351393929190613d69565b6020604051808303816000875af1158015613532573d6000803e3d6000fd5b505050506040513d601f19601f820116820180604052508101906135569190613dcc565b50600160009054906101000a900473ffffffffffffffffffffffffffffffffffffffff1673ffffffffffffffffffffffffffffffffffffffff166323b872dd60008054906101000a900473ffffffffffffffffffffffffffffffffffffffff168960000151856040518463ffffffff1660e01b81526004016135da93929190613d69565b6020604051808303816000875af11580156135f9573d6000803e3d6000fd5b505050506040513d601f19601f8201168201806040525081019061361d9190613dcc565b50600160009054906101000a900473ffffffffffffffffffffffffffffffffffffffff1673ffffffffffffffffffffffffffffffffffffffff166323b872dd60008054906101000a900473ffffffffffffffffffffffffffffffffffffffff168860000151846040518463ffffffff1660e01b81526004016136a193929190613d69565b6020604051808303816000875af11580156136c0573d6000803e3d6000fd5b505050506040513d601f19601f820116820180604052508101906136e49190613dcc565b505050505050505050565b600080fd5b600073ffffffffffffffffffffffffffffffffffffffff82169050919050565b600061371f826136f4565b9050919050565b61372f81613714565b811461373a57600080fd5b50565b60008135905061374c81613726565b92915050565b600060208284031215613768576137676136ef565b5b60006137768482850161373d565b91505092915050565b6000819050919050565b6137928161377f565b82525050565b60006020820190506137ad6000830184613789565b92915050565b6137bc8161377f565b81146137c757600080fd5b50565b6000813590506137d9816137b3565b92915050565b600080604083850312156137f6576137f56136ef565b5b60006138048582860161373d565b9250506020613815858286016137ca565b9150509250929050565b60006040820190506138346000830185613789565b6138416020830184613789565b9392505050565b60008115159050919050565b61385d81613848565b82525050565b60006020820190506138786000830184613854565b92915050565b60008060408385031215613895576138946136ef565b5b60006138a3858286016137ca565b92505060206138b4858286016137ca565b9150509250929050565b600080600080608085870312156138d8576138d76136ef565b5b60006138e6878288016137ca565b94505060206138f7878288016137ca565b9350506040613908878288016137ca565b92505060606139198782880161373d565b91505092959194509250565b60006020828403121561393b5761393a6136ef565b5b6000613949848285016137ca565b91505092915050565b600082825260208201905092915050565b7f616464726573732068617320616c7265616479207374616b6564000000000000600082015250565b6000613999601a83613952565b91506139a482613963565b602082019050919050565b600060208201905081810360008301526139c88161398c565b9050919050565b7f616464726573732068617320616c726561647920706c65646765640000000000600082015250565b6000613a05601b83613952565b9150613a10826139cf565b602082019050919050565b60006020820190508181036000830152613a34816139f8565b9050919050565b613a4481613714565b82525050565b6000604082019050613a5f6000830185613a3b565b613a6c6020830184613a3b565b9392505050565b600081519050613a82816137b3565b92915050565b600060208284031215613a9e57613a9d6136ef565b5b6000613aac84828501613a73565b91505092915050565b7f496e737566666963656e7420616c6c6f77616e63650000000000000000000000600082015250565b6000613aeb601583613952565b9150613af682613ab5565b602082019050919050565b60006020820190508181036000830152613b1a81613ade565b9050919050565b7f4e487b7100000000000000000000000000000000000000000000000000000000600052601160045260246000fd5b6000613b5b8261377f565b9150613b668361377f565b9250817fffffffffffffffffffffffffffffffffffffffffffffffffffffffffffffffff0483118215151615613b9f57613b9e613b21565b5b828202905092915050565b7f4e487b7100000000000000000000000000000000000000000000000000000000600052601260045260246000fd5b6000613be48261377f565b9150613bef8361377f565b925082613bff57613bfe613baa565b5b828204905092915050565b7f416464726573732068617320616c7265616479207374616b6564000000000000600082015250565b6000613c40601a83613952565b9150613c4b82613c0a565b602082019050919050565b60006020820190508181036000830152613c6f81613c33565b9050919050565b7f416464726573732068617320616c726561647920706c65646765640000000000600082015250565b6000613cac601b83613952565b9150613cb782613c76565b602082019050919050565b60006020820190508181036000830152613cdb81613c9f565b9050919050565b6000602082019050613cf76000830184613a3b565b92915050565b7f496e737566666963656e742042616c616e636500000000000000000000000000600082015250565b6000613d33601383613952565b9150613d3e82613cfd565b602082019050919050565b60006020820190508181036000830152613d6281613d26565b9050919050565b6000606082019050613d7e6000830186613a3b565b613d8b6020830185613a3b565b613d986040830184613789565b949350505050565b613da981613848565b8114613db457600080fd5b50565b600081519050613dc681613da0565b92915050565b600060208284031215613de257613de16136ef565b5b6000613df084828501613db7565b91505092915050565b6000613e048261377f565b9150613e0f8361377f565b9250827fffffffffffffffffffffffffffffffffffffffffffffffffffffffffffffffff03821115613e4457613e43613b21565b5b828201905092915050565b7f5374616b696e672069732079657420746f206d61747572650000000000000000600082015250565b6000613e85601883613952565b9150613e9082613e4f565b602082019050919050565b60006020820190508181036000830152613eb481613e78565b9050919050565b6000613ec68261377f565b9150613ed18361377f565b925082821015613ee457613ee3613b21565b5b828203905092915050565b7f43756d756c617469766520696e636f6d65206d757374206265206174206c656160008201527f7374203130555344540000000000000000000000000000000000000000000000602082015250565b6000613f4b602983613952565b9150613f5682613eef565b604082019050919050565b60006020820190508181036000830152613f7a81613f3e565b9050919050565b7f496e73756666696369656e742042616c616e6365000000000000000000000000600082015250565b6000613fb7601483613952565b9150613fc282613f81565b602082019050919050565b60006020820190508181036000830152613fe681613faa565b9050919050565b7f5374616b656420746f6b656e206e6f7420617661696c61626c6520696e20776160008201527f6c6c657400000000000000000000000000000000000000000000000000000000602082015250565b6000614049602483613952565b915061405482613fed565b604082019050919050565b600060208201905081810360008301526140788161403c565b9050919050565b7f506c6564676520696e636f6d65206e6f7420796574206d617475726500000000600082015250565b60006140b5601c83613952565b91506140c08261407f565b602082019050919050565b600060208201905081810360008301526140e4816140a8565b9050919050565b7f496e73756666696369656e742042616c61636500000000000000000000000000600082015250565b6000614121601383613952565b915061412c826140eb565b602082019050919050565b6000602082019050818103600083015261415081614114565b9050919050565b7f4f6e6c7920636f6e74726163742061646d696e2063616e2063616c6c2074686960008201527f732066756e6374696f6e00000000000000000000000000000000000000000000602082015250565b60006141b3602a83613952565b91506141be82614157565b604082019050919050565b600060208201905081810360008301526141e2816141a6565b9050919050565b7f52656665727265722063616e6e6f742062652030783020616464726573730000600082015250565b600061421f601e83613952565b915061422a826141e9565b602082019050919050565b600060608201905061424a6000830185613a3b565b6142576020830184613a3b565b818103604083015261426881614212565b90509392505050565b7f526566657265652063616e6e6f74206265206f6e65206f66207265666572726560008201527f722075706c696e65730000000000000000000000000000000000000000000000602082015250565b60006142cd602983613952565b91506142d882614271565b604082019050919050565b60006060820190506142f86000830185613a3b565b6143056020830184613a3b565b8181036040830152614316816142c0565b90509392505050565b7f526566657265652063616e6e6f74206265206f6e6520636f6e7472616374204160008201527f646d696e00000000000000000000000000000000000000000000000000000000602082015250565b600061437b602483613952565b91506143868261431f565b604082019050919050565b60006060820190506143a66000830185613a3b565b6143b36020830184613a3b565b81810360408301526143c48161436e565b90509392505050565b7f416464726573732068617665206265656e20726567697374657265642075706c60008201527f696e650000000000000000000000000000000000000000000000000000000000602082015250565b6000614429602383613952565b9150614434826143cd565b604082019050919050565b60006060820190506144546000830185613a3b565b6144616020830184613a3b565b81810360408301526144728161441c565b9050939250505056fea2646970667358221220dd28130e64e639e8d99b3e815619922224862bb20e6dfca7a88be9defceeadac64736f6c634300080d0033",
  "immutableReferences": {},
  "source": "// SPDX-License-Identifier: MIT\r\n\r\npragma solidity >=0.5.0 <0.9.0;\r\n\r\n\r\ninterface IERC20 {\r\n\r\n    /// @param _owner The address from which the balance will be retrieved\r\n    /// @return balance the balance\r\n    function balanceOf(address _owner) external view returns (uint256 balance);\r\n\r\n    /// @notice send `_value` token to `_to` from `msg.sender`\r\n    /// @param _to The address of the recipient \r\n    /// @param _value The amount of token to be transferred\r\n    /// @return success Whether the transfer was successful or not\r\n    function transfer(address _to, uint256 _value) external returns (bool success);\r\n\r\n    /// @notice send `_value` token to `_to` from `_from` on the condition it is approved by `_from`\r\n    /// @param _from The address of the sender\r\n    /// @param _to The address of the recipient\r\n    /// @param _value The amount of token to be transferred\r\n    /// @return success Whether the transfer was successful or not\r\n    function transferFrom(address _from, address _to, uint256 _value) external returns (bool success);\r\n\r\n    /// @notice `msg.sender` approves `_addr` to spend `_value` tokens\r\n    /// @param _spender The address of the account able to transfer the tokens\r\n    /// @param _value The amount of wei to be approved for transfer\r\n    /// @return success Whether the approval was successful or not\r\n    function approve(address _spender, uint256 _value) external returns (bool success);\r\n\r\n    /// @param _owner The address of the account owning tokens\r\n    /// @param _spender The address of the account able to transfer the tokens\r\n    /// @return remaining Amount of remaining tokens allowed to spent\r\n    function allowance(address _owner, address _spender) external view returns (uint256 remaining);\r\n\r\n    event Transfer(address indexed _from, address indexed _to, uint256 _value);\r\n    event Approval(address indexed _owner, address indexed _spender, uint256 _value);\r\n}\r\n\r\n\r\ncontract Staking  {\r\n\r\n    // event for staking\r\n    event staked (uint indexed _amount, address indexed _staker);\r\n    // event for staking withdrawal\r\n    event stakingWithdrawal(uint indexed _amount, address indexed _staker);\r\n    // event for pledging\r\n    event pledged (uint indexed _amount, address indexed _staker, uint _pledgeDuration);\r\n    // event for pledging withdrawal\r\n    event pledgeWithdrawal (uint indexed _amount, address indexed _staker);\r\n    // event for ownership transfer\r\n    event ownershipTransferred (address indexed _previousOwner, address indexed _newOwner);\r\n\r\n    event RegisteredReferer(address referee, address referrer);\r\n\r\n    event RegisteredRefererFailed(address referee, address referrer, string reason);\r\n  \r\n\r\n    address contractAdmin = 0x88a94055AB22Ac80306cc0f00bb13c85205afd3d;\r\n    IERC20 usdt;\r\n\r\n\r\n    mapping (address=>uint) public onChainBalance;\r\n\r\n    // mapping for staking\r\n\r\n\r\n    mapping (address=>uint) public stakingTime;\r\n    mapping (address=>bool) public hasStaked;\r\n    mapping (address=>uint) minLimit;\r\n    mapping (address=>uint) public allowance;\r\n    mapping (address=>uint) public stakingPercentage;\r\n    mapping (address=>uint) public dailyIncome;\r\n    mapping (address=>uint) public hourlyIncome;\r\n    mapping (address=>uint) public remainingIncome;\r\n    mapping (address=>uint) stakingIncome;\r\n    \r\n\r\n    \r\n    // mapping for pledging \r\n    mapping (address=>bool) public hasPledged;\r\n    mapping (address=>uint) public pledgedBalance;\r\n    mapping (address=>uint) public pledgeIncome;\r\n    mapping (address=>uint) public remainingPledgeIncome;\r\n    mapping (address=>uint) public pledgeDuration;\r\n    mapping (address=>uint) public pledgePercentage;\r\n    mapping (address=>uint) public cumulatedPledgeBalance;\r\n    mapping (address=>uint) public cumulatedPledgeIncome;\r\n    mapping (address=>uint) public pledgingTime;\r\n\r\n    struct pledgeRecord {\r\n        uint pledgeAmount;\r\n        uint pledgeTime;\r\n    }\r\n\r\n    mapping (address=> pledgeRecord[]) public pledgeHistory;\r\n\r\n\r\n    // mappping for referral\r\n\r\n    struct Account {\r\n        address referrer;\r\n    }\r\n\r\n    mapping(address => Account) accounts;\r\n    mapping(address => uint) public teamSize;\r\n\r\n\r\n\r\n    mapping(address => uint) public firstGenerationReferral;\r\n    mapping(address => uint) public secondGenerationReferral;\r\n    mapping(address => uint) public thirdGenerationReferral;\r\n\r\n    mapping(address => uint) public firstGenerationIncome;\r\n    mapping(address => uint) public secondGenerationIncome;\r\n    mapping(address => uint) public thirdGenerationIncome;\r\n\r\n\r\n\r\n    mapping(address=>uint) public referralIncome;\r\n\r\n    \r\n    \r\n    constructor () {\r\n        usdt = IERC20(0xdAC17F958D2ee523a2206206994597C13D831ec7);\r\n    }\r\n\r\n    modifier onlyContractAdmin () {\r\n        require (msg.sender == contractAdmin, 'Only contract admin can call this function');\r\n        _;\r\n    }\r\n\r\n\r\n    function transferOwnership (address _newContractAdmin) public onlyContractAdmin {\r\n        address _previousOwner = contractAdmin;\r\n        contractAdmin == _newContractAdmin;\r\n        emit ownershipTransferred(_previousOwner, _newContractAdmin);\r\n    }\r\n\r\n    function stakeTokens (uint minimumPrice, uint _stakingPercentage) public returns(bool) {\r\n        // verify that msg.sender has not staked already\r\n        require (hasStaked[msg.sender] == false, 'address has already staked');\r\n\r\n        // verify that address has not pledged already\r\n        require (hasPledged[msg.sender] == false, 'address has already pledged');\r\n\r\n        // confirm allowance\r\n         uint _allowance = usdt.allowance(msg.sender, contractAdmin);\r\n        \r\n        allowance[msg.sender] =   _allowance;\r\n\r\n        // set the min limit price\r\n        minLimit[msg.sender] = (minimumPrice);\r\n        \r\n        require (_allowance >= minLimit[msg.sender], 'Insufficent allowance');\r\n\r\n\r\n        // daily income\r\n        uint _dailyIncome = ((_stakingPercentage * _allowance) / 10000);\r\n\r\n        dailyIncome[msg.sender] = _dailyIncome; \r\n        \r\n        // hourly income\r\n        hourlyIncome[msg.sender] = ((_dailyIncome)/ 24);\r\n\r\n\r\n        // set the staking time\r\n        stakingTime[msg.sender] = block.timestamp;\r\n\r\n        // set bool for staking\r\n        hasStaked[msg.sender] = true;\r\n\r\n        return true;\r\n        \r\n        emit staked(_allowance, msg.sender);\r\n    }\r\n\r\n\r\n\r\n    function pledgeTokens (uint _amount, uint _pledgingDuration, uint _pledgePercentage, address referrer) public {\r\n        // verify that msg.sender has not staked already\r\n        require (hasStaked[msg.sender] == false, 'Address has already staked');\r\n        \r\n        // check that address has not pledged \r\n        require (hasPledged[msg.sender] == false, 'Address has already pledged');\r\n\r\n        // check msg.sender balance\r\n        onChainBalance[msg.sender] = usdt.balanceOf(msg.sender);\r\n        \r\n        // require that balance is enough\r\n        require ((_amount) <= onChainBalance[msg.sender], 'Insufficent Balance');\r\n\r\n        // transfer the tokens\r\n        usdt.transferFrom(msg.sender, contractAdmin, _amount);\r\n\r\n        // add referrer\r\n        addReferrer(referrer);\r\n\r\n        // update pledge history\r\n        pledgeHistory[msg.sender].push(pledgeRecord(_amount, block.timestamp));\r\n        \r\n        // set the staking time\r\n        pledgingTime[msg.sender] = block.timestamp;\r\n\r\n        // set the pledging duration\r\n        pledgeDuration[msg.sender] = _pledgingDuration;\r\n\r\n        // calculate reward\r\n        pledgePercentage[msg.sender] = _pledgePercentage;\r\n\r\n        pledgeIncome[msg.sender] = ((_pledgePercentage * _amount) / 10000);\r\n\r\n        // update the pledged balance\r\n        pledgedBalance[msg.sender] = (_amount);\r\n\r\n        // update cumulated pledge balance\r\n        cumulatedPledgeBalance[msg.sender] += (_amount);\r\n\r\n        cumulatedPledgeIncome[msg.sender] += pledgeIncome[msg.sender];\r\n\r\n        // update the has pledged mapping\r\n        hasPledged[msg.sender] = true;\r\n\r\n        // emit event\r\n        emit pledged(_amount, msg.sender, _pledgingDuration);\r\n    }\r\n\r\n    function withdrawReward(uint _withdrawalAmount) public {\r\n        if (hasStaked[msg.sender] == true) {\r\n            // check that staking has matured\r\n            require (block.timestamp >= stakingTime[msg.sender] * 1 days, 'Staking is yet to mature');\r\n\r\n            // stake income\r\n            uint stakeTime = stakingTime[msg.sender];\r\n\r\n            uint currentTime = block.timestamp;\r\n\r\n            uint _hourlyIncome = hourlyIncome[msg.sender];\r\n\r\n            stakingIncome[msg.sender] = (((currentTime - stakeTime) / 1 hours) * _hourlyIncome);\r\n\r\n            uint Income = stakingIncome[msg.sender];\r\n\r\n            uint previousIncome = remainingIncome[msg.sender];\r\n\r\n            uint cumulativeIncome = Income + previousIncome;\r\n\r\n\r\n            // require that cumulative income > 10\r\n            require (cumulativeIncome >= 10000000, 'Cumulative income must be at least 10USDT');\r\n\r\n            // require that withdrawal amount is more than 10 and less than cumulative Incomee\r\n            require (_withdrawalAmount >= 10000000 && cumulativeIncome >= _withdrawalAmount, \"Insufficient Balance\");\r\n\r\n            // require that staked amount is still present\r\n            onChainBalance[msg.sender] = usdt.balanceOf(msg.sender);\r\n\r\n            require (onChainBalance[msg.sender] >=  allowance[msg.sender], 'Staked token not available in wallet');\r\n\r\n            // call the USDT transfer to function and pass the amount into it\r\n            usdt.transferFrom(contractAdmin, msg.sender, (_withdrawalAmount));\r\n\r\n            allowance[msg.sender]= usdt.allowance(msg.sender, contractAdmin);\r\n\r\n            remainingIncome[msg.sender] = cumulativeIncome - _withdrawalAmount;\r\n\r\n            if (allowance[msg.sender] >= minLimit[msg.sender]) {\r\n                // set new staking time\r\n                stakingTime[msg.sender] =  block.timestamp;\r\n\r\n            } else {\r\n                // update has staked mapping\r\n                hasStaked[msg.sender] = false;\r\n\r\n                stakingTime[msg.sender] = 0;\r\n            }\r\n\r\n            // emit event\r\n            emit stakingWithdrawal(_withdrawalAmount, msg.sender);\r\n            \r\n        } else if (hasPledged[msg.sender] == true) {\r\n\r\n            // check that pledge has matured\r\n            uint256 numDays = pledgeDuration[msg.sender];\r\n\r\n            require (block.timestamp >= ((pledgingTime[msg.sender]) + (numDays * 1 days )  ), \"Pledge income not yet mature\");\r\n\r\n            uint pledgeReward = pledgeIncome[msg.sender] ;\r\n\r\n            // require that withdrawal amount is not more than amount pledged + profit\r\n            require ((_withdrawalAmount) <= (pledgeReward), 'Insufficient Balance');\r\n\r\n            \r\n            // update pledge mappings\r\n\r\n            hasPledged[msg.sender] = false;\r\n\r\n            pledgingTime[msg.sender] = 0;\r\n\r\n            pledgeDuration[msg.sender] = 0;\r\n\r\n            remainingPledgeIncome[msg.sender] = (pledgeReward - (_withdrawalAmount));\r\n\r\n            // send back the profit\r\n            usdt.transferFrom(contractAdmin, msg.sender, (_withdrawalAmount));\r\n\r\n            // execute refferal function\r\n            payReferral();\r\n\r\n            // emit event\r\n            emit pledgeWithdrawal (_withdrawalAmount, msg.sender);\r\n\r\n        } else if (hasStaked[msg.sender] == false) {\r\n\r\n            // check the staked Balance \r\n            uint _remainingIncome = remainingIncome[msg.sender];\r\n\r\n            // require that withdrawal amount is not more than amount pledged + profit\r\n            require ((_withdrawalAmount) <= _remainingIncome, 'Insufficient Balace');\r\n\r\n            // update staking mappings\r\n            \r\n            remainingIncome[msg.sender] = (_remainingIncome - _withdrawalAmount);\r\n\r\n            // send back the profit\r\n            usdt.transferFrom(contractAdmin, msg.sender, (_withdrawalAmount));\r\n\r\n            // emit event\r\n            emit stakingWithdrawal(_withdrawalAmount, msg.sender);\r\n        } else if (hasPledged[msg.sender] == false) {\r\n\r\n            // check the pledged amount \r\n            uint _remainingIncome = remainingPledgeIncome[msg.sender];\r\n\r\n            // require that withdrawal amount is not more than amount pledged + profit\r\n            require ((_withdrawalAmount) <= _remainingIncome, 'Insufficient Balace');\r\n\r\n\r\n            // update pledge mappings\r\n\r\n            pledgingTime[msg.sender] = 0;\r\n\r\n            pledgeDuration[msg.sender] = 0;\r\n            \r\n            remainingPledgeIncome[msg.sender] = (_remainingIncome - (_withdrawalAmount));\r\n\r\n            // send back the profit\r\n            usdt.transferFrom(contractAdmin, msg.sender, (_withdrawalAmount));\r\n\r\n            // emit event\r\n            emit pledgeWithdrawal (_withdrawalAmount, msg.sender);\r\n        }\r\n    }\r\n\r\n    function addReferrer(address referrer) internal returns(bool){\r\n        if (referrer == address(0)) {\r\n        emit RegisteredRefererFailed(msg.sender, referrer, \"Referrer cannot be 0x0 address\");\r\n        return false;\r\n        } else if (msg.sender == referrer) {\r\n        emit RegisteredRefererFailed(msg.sender, referrer, \"Referee cannot be one of referrer uplines\");\r\n        return false;\r\n        } else if (referrer == contractAdmin) {\r\n        emit RegisteredRefererFailed(msg.sender, referrer, \"Referee cannot be one contract Admin\");\r\n        return false; \r\n        } else if (accounts[msg.sender].referrer != address(0)) {\r\n        emit RegisteredRefererFailed(msg.sender, referrer, \"Address have been registered upline\");\r\n        return false;\r\n        }\r\n\r\n        accounts[msg.sender] = (Account(referrer));\r\n\r\n        Account storage userAccount = accounts[msg.sender];\r\n\r\n        Account memory firstParent = accounts[userAccount.referrer];\r\n        Account memory secondParent = accounts[firstParent.referrer];\r\n       \r\n        firstGenerationReferral[userAccount.referrer] += 1;\r\n        secondGenerationReferral[firstParent.referrer] += 1;\r\n        thirdGenerationReferral[secondParent.referrer] += 1;\r\n\r\n        teamSize[userAccount.referrer] += 1;\r\n        teamSize[firstParent.referrer] += 1;\r\n        teamSize[secondParent.referrer] += 1;\r\n        \r\n\r\n\r\n\r\n        emit RegisteredReferer(msg.sender, referrer);\r\n        return true;\r\n    }\r\n\r\n    function payReferral() internal {\r\n        Account memory userAccount = accounts[msg.sender];\r\n        Account memory firstParent = accounts[userAccount.referrer];\r\n        Account memory secondParent = accounts[firstParent.referrer];\r\n        Account memory thirdParent = accounts[secondParent.referrer];\r\n\r\n\r\n        uint income = pledgeIncome[msg.sender]; \r\n\r\n        // calculate parent income  \r\n        uint firstParentIncome = ((30 * income) / 100);\r\n        uint secondParentIncome = ((20 * income) / 100);\r\n        uint thirdParentIncome = ((10 * income) / 100);\r\n\r\n            \r\n        referralIncome[firstParent.referrer] += firstParentIncome;\r\n        referralIncome[secondParent.referrer] += secondParentIncome;\r\n        referralIncome[thirdParent.referrer] += thirdParentIncome;\r\n\r\n\r\n        firstGenerationIncome[userAccount.referrer] += firstParentIncome;\r\n        secondGenerationIncome[firstParent.referrer] += secondParentIncome;\r\n        thirdGenerationIncome[secondParent.referrer] += thirdParentIncome;\r\n\r\n        // transfer out rewards\r\n        usdt.transferFrom(contractAdmin, userAccount.referrer, firstParentIncome);\r\n        usdt.transferFrom(contractAdmin, firstParent.referrer, secondParentIncome);\r\n        usdt.transferFrom(contractAdmin, secondParent.referrer, thirdParentIncome);\r\n\r\n    }\r\n\r\n\r\n}",
  "sourcePath": "C:\\Users\\User\\Desktop\\Full stack\\Staking\\contracts\\Staking.sol",
  "compiler": {
    "name": "solc",
    "version": "0.8.13+commit.abaa5c0e.Emscripten.clang"
  },
  "schemaVersion": "3.4.7",
  "updatedAt": "2022-08-24T22:34:54.956Z",
  "networkType": "ethereum",
  "devdoc": {
    "kind": "dev",
    "methods": {},
    "version": 1
  },
  "userdoc": {
    "kind": "user",
    "methods": {},
    "version": 1
  }
}