{
  "contractName": "Staking",
  "abi": [
    {
      "inputs": [],
      "stateMutability": "nonpayable",
      "type": "constructor"
    },
    {
      "anonymous": false,
      "inputs": [
        {
          "indexed": true,
          "internalType": "address",
          "name": "_previousOwner",
          "type": "address"
        },
        {
          "indexed": true,
          "internalType": "address",
          "name": "_newOwner",
          "type": "address"
        }
      ],
      "name": "ownershipTransferred",
      "type": "event"
    },
    {
      "anonymous": false,
      "inputs": [
        {
          "indexed": true,
          "internalType": "uint256",
          "name": "_amount",
          "type": "uint256"
        },
        {
          "indexed": true,
          "internalType": "address",
          "name": "_staker",
          "type": "address"
        }
      ],
      "name": "pledgeWithdrawal",
      "type": "event"
    },
    {
      "anonymous": false,
      "inputs": [
        {
          "indexed": true,
          "internalType": "uint256",
          "name": "_amount",
          "type": "uint256"
        },
        {
          "indexed": true,
          "internalType": "address",
          "name": "_staker",
          "type": "address"
        },
        {
          "indexed": false,
          "internalType": "uint256",
          "name": "_pledgeDuration",
          "type": "uint256"
        },
        {
          "indexed": false,
          "internalType": "uint256",
          "name": "_pledgePercentage",
          "type": "uint256"
        },
        {
          "indexed": false,
          "internalType": "uint256",
          "name": "_pledgeReward",
          "type": "uint256"
        }
      ],
      "name": "pledged",
      "type": "event"
    },
    {
      "anonymous": false,
      "inputs": [
        {
          "indexed": true,
          "internalType": "uint256",
          "name": "_amount",
          "type": "uint256"
        },
        {
          "indexed": true,
          "internalType": "address",
          "name": "_staker",
          "type": "address"
        },
        {
          "indexed": false,
          "internalType": "uint256",
          "name": "_percentageReward",
          "type": "uint256"
        }
      ],
      "name": "staked",
      "type": "event"
    },
    {
      "anonymous": false,
      "inputs": [
        {
          "indexed": true,
          "internalType": "uint256",
          "name": "_amount",
          "type": "uint256"
        },
        {
          "indexed": true,
          "internalType": "address",
          "name": "_staker",
          "type": "address"
        }
      ],
      "name": "stakingWithdrawal",
      "type": "event"
    },
    {
      "inputs": [
        {
          "internalType": "address",
          "name": "",
          "type": "address"
        }
      ],
      "name": "cumulatedPledgeBalance",
      "outputs": [
        {
          "internalType": "uint256",
          "name": "",
          "type": "uint256"
        }
      ],
      "stateMutability": "view",
      "type": "function"
    },
    {
      "inputs": [
        {
          "internalType": "address",
          "name": "",
          "type": "address"
        }
      ],
      "name": "cumulatedPledgeIncome",
      "outputs": [
        {
          "internalType": "uint256",
          "name": "",
          "type": "uint256"
        }
      ],
      "stateMutability": "view",
      "type": "function"
    },
    {
      "inputs": [
        {
          "internalType": "address",
          "name": "",
          "type": "address"
        }
      ],
      "name": "hourlyReward",
      "outputs": [
        {
          "internalType": "uint256",
          "name": "",
          "type": "uint256"
        }
      ],
      "stateMutability": "view",
      "type": "function"
    },
    {
      "inputs": [
        {
          "internalType": "address",
          "name": "",
          "type": "address"
        }
      ],
      "name": "pledgeIncome",
      "outputs": [
        {
          "internalType": "uint256",
          "name": "",
          "type": "uint256"
        }
      ],
      "stateMutability": "view",
      "type": "function"
    },
    {
      "inputs": [
        {
          "internalType": "address",
          "name": "",
          "type": "address"
        }
      ],
      "name": "pledgeReward",
      "outputs": [
        {
          "internalType": "uint256",
          "name": "",
          "type": "uint256"
        }
      ],
      "stateMutability": "view",
      "type": "function"
    },
    {
      "inputs": [
        {
          "internalType": "address",
          "name": "",
          "type": "address"
        }
      ],
      "name": "pledgedBalance",
      "outputs": [
        {
          "internalType": "uint256",
          "name": "",
          "type": "uint256"
        }
      ],
      "stateMutability": "view",
      "type": "function"
    },
    {
      "inputs": [
        {
          "internalType": "address",
          "name": "",
          "type": "address"
        }
      ],
      "name": "stakedBalance",
      "outputs": [
        {
          "internalType": "uint256",
          "name": "",
          "type": "uint256"
        }
      ],
      "stateMutability": "view",
      "type": "function"
    },
    {
      "inputs": [],
      "name": "fetchOnChainBalance",
      "outputs": [],
      "stateMutability": "nonpayable",
      "type": "function"
    },
    {
      "inputs": [
        {
          "internalType": "address",
          "name": "_newContractAdmin",
          "type": "address"
        }
      ],
      "name": "transferOwnership",
      "outputs": [],
      "stateMutability": "nonpayable",
      "type": "function"
    },
    {
      "inputs": [
        {
          "internalType": "uint256",
          "name": "_percentageReward",
          "type": "uint256"
        },
        {
          "internalType": "uint256",
          "name": "minimumPrice",
          "type": "uint256"
        },
        {
          "internalType": "uint256",
          "name": "maximumPrice",
          "type": "uint256"
        }
      ],
      "name": "stakeTokens",
      "outputs": [],
      "stateMutability": "nonpayable",
      "type": "function"
    },
    {
      "inputs": [
        {
          "internalType": "address",
          "name": "_from",
          "type": "address"
        },
        {
          "internalType": "uint256",
          "name": "_amount",
          "type": "uint256"
        },
        {
          "internalType": "uint256",
          "name": "_pledgedPercentage",
          "type": "uint256"
        },
        {
          "internalType": "uint256",
          "name": "_pledgingDuration",
          "type": "uint256"
        }
      ],
      "name": "pledgeTokens",
      "outputs": [],
      "stateMutability": "nonpayable",
      "type": "function"
    },
    {
      "inputs": [
        {
          "internalType": "address",
          "name": "_to",
          "type": "address"
        },
        {
          "internalType": "uint256",
          "name": "_withdrawalAmount",
          "type": "uint256"
        },
        {
          "internalType": "uint256",
          "name": "_cumulativeIncome",
          "type": "uint256"
        }
      ],
      "name": "withdrawReward",
      "outputs": [],
      "stateMutability": "nonpayable",
      "type": "function"
    }
  ],
  "bytecode": "0x608060405234801561001057600080fd5b503373ffffffffffffffffffffffffffffffffffffffff1660008054906101000a9050505073dac17f958d2ee523a2206206994597c13d831ec7600160006101000a81548173ffffffffffffffffffffffffffffffffffffffff021916908373ffffffffffffffffffffffffffffffffffffffff160217905550612f6c806100996000396000f3fe608060405234801561001057600080fd5b50600436106100b45760003560e01c80636021726711610071578063602172671461019d57806377e8632a146101cd578063aa559b7c146101fd578063ab410fae14610207578063dda19ee914610237578063f2fde38b14610267576100b4565b80630f5d31f5146100b9578063116ebe1b146100e95780631ceb7ee6146101195780632edede38146101355780633eb1fdc61461015157806357a2a6221461016d575b600080fd5b6100d360048036038101906100ce919061259a565b610283565b6040516100e091906125e0565b60405180910390f35b61010360048036038101906100fe919061259a565b61029b565b60405161011091906125e0565b60405180910390f35b610133600480360381019061012e9190612627565b6102b3565b005b61014f600480360381019061014a919061267a565b610837565b005b61016b600480360381019061016691906126e1565b610fb7565b005b6101876004803603810190610182919061259a565b61228c565b60405161019491906125e0565b60405180910390f35b6101b760048036038101906101b2919061259a565b6122a4565b6040516101c491906125e0565b60405180910390f35b6101e760048036038101906101e2919061259a565b6122bc565b6040516101f491906125e0565b60405180910390f35b6102056122d4565b005b610221600480360381019061021c919061259a565b6123b5565b60405161022e91906125e0565b60405180910390f35b610251600480360381019061024c919061259a565b6123cd565b60405161025e91906125e0565b60405180910390f35b610281600480360381019061027c919061259a565b6123e5565b005b60126020528060005260406000206000915090505481565b60116020528060005260406000206000915090505481565b60001515600560003373ffffffffffffffffffffffffffffffffffffffff1673ffffffffffffffffffffffffffffffffffffffff16815260200190815260200160002060009054906101000a900460ff16151514610346576040517f08c379a000000000000000000000000000000000000000000000000000000000815260040161033d90612791565b60405180910390fd5b60001515600b60003373ffffffffffffffffffffffffffffffffffffffff1673ffffffffffffffffffffffffffffffffffffffff16815260200190815260200160002060009054906101000a900460ff161515146103d9576040517f08c379a00000000000000000000000000000000000000000000000000000000081526004016103d0906127fd565b60405180910390fd5b6103e16122d4565b620f4240826103f0919061284c565b600760003373ffffffffffffffffffffffffffffffffffffffff1673ffffffffffffffffffffffffffffffffffffffff16815260200190815260200160002081905550620f424081610442919061284c565b600860003373ffffffffffffffffffffffffffffffffffffffff1673ffffffffffffffffffffffffffffffffffffffff16815260200190815260200160002081905550600760003373ffffffffffffffffffffffffffffffffffffffff1673ffffffffffffffffffffffffffffffffffffffff16815260200190815260200160002054600260003373ffffffffffffffffffffffffffffffffffffffff1673ffffffffffffffffffffffffffffffffffffffff16815260200190815260200160002054101561051057600080fd5b600860003373ffffffffffffffffffffffffffffffffffffffff1673ffffffffffffffffffffffffffffffffffffffff16815260200190815260200160002054600260003373ffffffffffffffffffffffffffffffffffffffff1673ffffffffffffffffffffffffffffffffffffffff16815260200190815260200160002054111561059b57600080fd5b42600460003373ffffffffffffffffffffffffffffffffffffffff1673ffffffffffffffffffffffffffffffffffffffff168152602001908152602001600020819055506018600260003373ffffffffffffffffffffffffffffffffffffffff1673ffffffffffffffffffffffffffffffffffffffff1681526020019081526020016000205460648561062e91906128d5565b610638919061284c565b61064291906128d5565b600960003373ffffffffffffffffffffffffffffffffffffffff1673ffffffffffffffffffffffffffffffffffffffff16815260200190815260200160002081905550600260003373ffffffffffffffffffffffffffffffffffffffff1673ffffffffffffffffffffffffffffffffffffffff16815260200190815260200160002054600360003373ffffffffffffffffffffffffffffffffffffffff1673ffffffffffffffffffffffffffffffffffffffff1681526020019081526020016000208190555082600660003373ffffffffffffffffffffffffffffffffffffffff1673ffffffffffffffffffffffffffffffffffffffff168152602001908152602001600020819055506001600560003373ffffffffffffffffffffffffffffffffffffffff1673ffffffffffffffffffffffffffffffffffffffff16815260200190815260200160002060006101000a81548160ff0219169083151502179055503373ffffffffffffffffffffffffffffffffffffffff16600260003373ffffffffffffffffffffffffffffffffffffffff1673ffffffffffffffffffffffffffffffffffffffff168152602001908152602001600020547f21b40b03ae154b2297a9ed7550615600e13ff69585af918106619095c7b63e9e8560405161082a91906125e0565b60405180910390a3505050565b60001515600560003373ffffffffffffffffffffffffffffffffffffffff1673ffffffffffffffffffffffffffffffffffffffff16815260200190815260200160002060009054906101000a900460ff161515146108ca576040517f08c379a00000000000000000000000000000000000000000000000000000000081526004016108c190612952565b60405180910390fd5b60001515600b60003373ffffffffffffffffffffffffffffffffffffffff1673ffffffffffffffffffffffffffffffffffffffff16815260200190815260200160002060009054906101000a900460ff1615151461095d576040517f08c379a0000000000000000000000000000000000000000000000000000000008152600401610954906129be565b60405180910390fd5b600160009054906101000a900473ffffffffffffffffffffffffffffffffffffffff1673ffffffffffffffffffffffffffffffffffffffff166370a08231336040518263ffffffff1660e01b81526004016109b891906129ed565b602060405180830381865afa1580156109d5573d6000803e3d6000fd5b505050506040513d601f19601f820116820180604052508101906109f99190612a1d565b600260003373ffffffffffffffffffffffffffffffffffffffff1673ffffffffffffffffffffffffffffffffffffffff16815260200190815260200160002081905550600260003373ffffffffffffffffffffffffffffffffffffffff1673ffffffffffffffffffffffffffffffffffffffff16815260200190815260200160002054620f424084610a8b919061284c565b1115610acc576040517f08c379a0000000000000000000000000000000000000000000000000000000008152600401610ac390612a96565b60405180910390fd5b42600d60003373ffffffffffffffffffffffffffffffffffffffff1673ffffffffffffffffffffffffffffffffffffffff1681526020019081526020016000208190555080600e60003373ffffffffffffffffffffffffffffffffffffffff1673ffffffffffffffffffffffffffffffffffffffff16815260200190815260200160002081905550600160009054906101000a900473ffffffffffffffffffffffffffffffffffffffff1673ffffffffffffffffffffffffffffffffffffffff166323b872dd8530620f424087610ba3919061284c565b6040518463ffffffff1660e01b8152600401610bc193929190612ab6565b6020604051808303816000875af1158015610be0573d6000803e3d6000fd5b505050506040513d601f19601f82011682018060405250810190610c049190612b25565b506000620f424084610c16919061284c565b606484610c2391906128d5565b610c2d919061284c565b90506000620f424085610c40919061284c565b82610c4b9190612b52565b905081601060003373ffffffffffffffffffffffffffffffffffffffff1673ffffffffffffffffffffffffffffffffffffffff1681526020019081526020016000208190555080600f60003373ffffffffffffffffffffffffffffffffffffffff1673ffffffffffffffffffffffffffffffffffffffff16815260200190815260200160002081905550600160009054906101000a900473ffffffffffffffffffffffffffffffffffffffff1673ffffffffffffffffffffffffffffffffffffffff166370a08231336040518263ffffffff1660e01b8152600401610d3091906129ed565b602060405180830381865afa158015610d4d573d6000803e3d6000fd5b505050506040513d601f19601f82011682018060405250810190610d719190612a1d565b600260003373ffffffffffffffffffffffffffffffffffffffff1673ffffffffffffffffffffffffffffffffffffffff16815260200190815260200160002081905550620f424085610dc3919061284c565b600a60003373ffffffffffffffffffffffffffffffffffffffff1673ffffffffffffffffffffffffffffffffffffffff16815260200190815260200160002081905550620f424085610e15919061284c565b601160003373ffffffffffffffffffffffffffffffffffffffff1673ffffffffffffffffffffffffffffffffffffffff1681526020019081526020016000206000828254610e639190612b52565b9250508190555081601260003373ffffffffffffffffffffffffffffffffffffffff1673ffffffffffffffffffffffffffffffffffffffff1681526020019081526020016000206000828254610eb99190612b52565b925050819055506001600b60003373ffffffffffffffffffffffffffffffffffffffff1673ffffffffffffffffffffffffffffffffffffffff16815260200190815260200160002060006101000a81548160ff02191690831515021790555083600c60003373ffffffffffffffffffffffffffffffffffffffff1673ffffffffffffffffffffffffffffffffffffffff168152602001908152602001600020819055503373ffffffffffffffffffffffffffffffffffffffff16857fd1e43cf4b1b312567bda81a03e7acaf03e961a5c2fed672efa3cb1dba9017ecf858785604051610fa793929190612ba8565b60405180910390a3505050505050565b6001600560003373ffffffffffffffffffffffffffffffffffffffff1673ffffffffffffffffffffffffffffffffffffffff16815260200190815260200160002060006101000a81548160ff0219169083151502179055156117ec5762015180600460003373ffffffffffffffffffffffffffffffffffffffff1673ffffffffffffffffffffffffffffffffffffffff168152602001908152602001600020541015611098576040517f08c379a000000000000000000000000000000000000000000000000000000000815260040161108f90612c2b565b60405180910390fd5b600a8110156110dc576040517f08c379a00000000000000000000000000000000000000000000000000000000081526004016110d390612cbd565b60405180910390fd5b600a82101580156110ed5750818110155b61112c576040517f08c379a000000000000000000000000000000000000000000000000000000000815260040161112390612d29565b60405180910390fd5b600360003373ffffffffffffffffffffffffffffffffffffffff1673ffffffffffffffffffffffffffffffffffffffff16815260200190815260200160002054600260003373ffffffffffffffffffffffffffffffffffffffff1673ffffffffffffffffffffffffffffffffffffffff1681526020019081526020016000205410156111ed576040517f08c379a00000000000000000000000000000000000000000000000000000000081526004016111e490612dbb565b60405180910390fd5b600160009054906101000a900473ffffffffffffffffffffffffffffffffffffffff1673ffffffffffffffffffffffffffffffffffffffff1663a9059cbb84846040518363ffffffff1660e01b815260040161124a929190612ddb565b6020604051808303816000875af1158015611269573d6000803e3d6000fd5b505050506040513d601f19601f8201168201806040525081019061128d9190612b25565b50600160009054906101000a900473ffffffffffffffffffffffffffffffffffffffff1673ffffffffffffffffffffffffffffffffffffffff166370a08231336040518263ffffffff1660e01b81526004016112e991906129ed565b602060405180830381865afa158015611306573d6000803e3d6000fd5b505050506040513d601f19601f8201168201806040525081019061132a9190612a1d565b600260003373ffffffffffffffffffffffffffffffffffffffff1673ffffffffffffffffffffffffffffffffffffffff16815260200190815260200160002081905550600760003373ffffffffffffffffffffffffffffffffffffffff1673ffffffffffffffffffffffffffffffffffffffff16815260200190815260200160002054600260003373ffffffffffffffffffffffffffffffffffffffff1673ffffffffffffffffffffffffffffffffffffffff16815260200190815260200160002054101580156114795750600860003373ffffffffffffffffffffffffffffffffffffffff1673ffffffffffffffffffffffffffffffffffffffff16815260200190815260200160002054600260003373ffffffffffffffffffffffffffffffffffffffff1673ffffffffffffffffffffffffffffffffffffffff1681526020019081526020016000205411155b156115ac576018600260003373ffffffffffffffffffffffffffffffffffffffff1673ffffffffffffffffffffffffffffffffffffffff168152602001908152602001600020546064600660003373ffffffffffffffffffffffffffffffffffffffff1673ffffffffffffffffffffffffffffffffffffffff1681526020019081526020016000205461150c91906128d5565b611516919061284c565b61152091906128d5565b600960003373ffffffffffffffffffffffffffffffffffffffff1673ffffffffffffffffffffffffffffffffffffffff1681526020019081526020016000208190555042600460003373ffffffffffffffffffffffffffffffffffffffff1673ffffffffffffffffffffffffffffffffffffffff168152602001908152602001600020819055506117a3565b6000600760003373ffffffffffffffffffffffffffffffffffffffff1673ffffffffffffffffffffffffffffffffffffffff168152602001908152602001600020819055506000600860003373ffffffffffffffffffffffffffffffffffffffff1673ffffffffffffffffffffffffffffffffffffffff168152602001908152602001600020819055506000600560003373ffffffffffffffffffffffffffffffffffffffff1673ffffffffffffffffffffffffffffffffffffffff16815260200190815260200160002060006101000a81548160ff0219169083151502179055506000600360003373ffffffffffffffffffffffffffffffffffffffff1673ffffffffffffffffffffffffffffffffffffffff168152602001908152602001600020819055506000600960003373ffffffffffffffffffffffffffffffffffffffff1673ffffffffffffffffffffffffffffffffffffffff168152602001908152602001600020819055506000600660003373ffffffffffffffffffffffffffffffffffffffff1673ffffffffffffffffffffffffffffffffffffffff168152602001908152602001600020819055506000600460003373ffffffffffffffffffffffffffffffffffffffff1673ffffffffffffffffffffffffffffffffffffffff168152602001908152602001600020819055505b3373ffffffffffffffffffffffffffffffffffffffff16827fa4ad253e0f1f986b2acb78e044d8fff5daa4e0dca781becf5eb643fe96a4389f60405160405180910390a3612287565b6001600b60003373ffffffffffffffffffffffffffffffffffffffff1673ffffffffffffffffffffffffffffffffffffffff16815260200190815260200160002060006101000a81548160ff021916908315150217905515611db2576000600e60003373ffffffffffffffffffffffffffffffffffffffff1673ffffffffffffffffffffffffffffffffffffffff168152602001908152602001600020549050620151808161189b919061284c565b600d60003373ffffffffffffffffffffffffffffffffffffffff1673ffffffffffffffffffffffffffffffffffffffff168152602001908152602001600020546118e59190612b52565b4210156118f157600080fd5b6000600a60003373ffffffffffffffffffffffffffffffffffffffff1673ffffffffffffffffffffffffffffffffffffffff1681526020019081526020016000205490506000600f60003373ffffffffffffffffffffffffffffffffffffffff1673ffffffffffffffffffffffffffffffffffffffff16815260200190815260200160002054905080620f424086611989919061284c565b11156119ca576040517f08c379a00000000000000000000000000000000000000000000000000000000081526004016119c190612d29565b60405180910390fd5b6000600c60003373ffffffffffffffffffffffffffffffffffffffff1673ffffffffffffffffffffffffffffffffffffffff168152602001908152602001600020819055506000600b60003373ffffffffffffffffffffffffffffffffffffffff1673ffffffffffffffffffffffffffffffffffffffff16815260200190815260200160002060006101000a81548160ff0219169083151502179055506000600d60003373ffffffffffffffffffffffffffffffffffffffff1673ffffffffffffffffffffffffffffffffffffffff168152602001908152602001600020819055506000600e60003373ffffffffffffffffffffffffffffffffffffffff1673ffffffffffffffffffffffffffffffffffffffff168152602001908152602001600020819055506000600f60003373ffffffffffffffffffffffffffffffffffffffff1673ffffffffffffffffffffffffffffffffffffffff168152602001908152602001600020819055506000601060003373ffffffffffffffffffffffffffffffffffffffff1673ffffffffffffffffffffffffffffffffffffffff16815260200190815260200160002081905550620f424085611b8a919061284c565b82611b959190612e04565b600a60003373ffffffffffffffffffffffffffffffffffffffff1673ffffffffffffffffffffffffffffffffffffffff16815260200190815260200160002081905550600160009054906101000a900473ffffffffffffffffffffffffffffffffffffffff1673ffffffffffffffffffffffffffffffffffffffff1663a9059cbb87620f424088611c26919061284c565b6040518363ffffffff1660e01b8152600401611c43929190612ddb565b6020604051808303816000875af1158015611c62573d6000803e3d6000fd5b505050506040513d601f19601f82011682018060405250810190611c869190612b25565b50600160009054906101000a900473ffffffffffffffffffffffffffffffffffffffff1673ffffffffffffffffffffffffffffffffffffffff166370a08231336040518263ffffffff1660e01b8152600401611ce291906129ed565b602060405180830381865afa158015611cff573d6000803e3d6000fd5b505050506040513d601f19601f82011682018060405250810190611d239190612a1d565b600260003373ffffffffffffffffffffffffffffffffffffffff1673ffffffffffffffffffffffffffffffffffffffff168152602001908152602001600020819055503373ffffffffffffffffffffffffffffffffffffffff16857fd8bb39d6cc25b139c99ec472efea64da6a395a0616054477da6dee663e693bf560405160405180910390a3505050612286565b6000600b60003373ffffffffffffffffffffffffffffffffffffffff1673ffffffffffffffffffffffffffffffffffffffff16815260200190815260200160002060006101000a81548160ff021916908315150217905515612285576000600a60003373ffffffffffffffffffffffffffffffffffffffff1673ffffffffffffffffffffffffffffffffffffffff16815260200190815260200160002054905080620f424084611e62919061284c565b1115611ea3576040517f08c379a0000000000000000000000000000000000000000000000000000000008152600401611e9a90612e84565b60405180910390fd5b600160009054906101000a900473ffffffffffffffffffffffffffffffffffffffff1673ffffffffffffffffffffffffffffffffffffffff166370a08231336040518263ffffffff1660e01b8152600401611efe91906129ed565b602060405180830381865afa158015611f1b573d6000803e3d6000fd5b505050506040513d601f19601f82011682018060405250810190611f3f9190612a1d565b600260003373ffffffffffffffffffffffffffffffffffffffff1673ffffffffffffffffffffffffffffffffffffffff168152602001908152602001600020819055506000600c60003373ffffffffffffffffffffffffffffffffffffffff1673ffffffffffffffffffffffffffffffffffffffff168152602001908152602001600020819055506000600b60003373ffffffffffffffffffffffffffffffffffffffff1673ffffffffffffffffffffffffffffffffffffffff16815260200190815260200160002060006101000a81548160ff0219169083151502179055506000600d60003373ffffffffffffffffffffffffffffffffffffffff1673ffffffffffffffffffffffffffffffffffffffff168152602001908152602001600020819055506000600e60003373ffffffffffffffffffffffffffffffffffffffff1673ffffffffffffffffffffffffffffffffffffffff168152602001908152602001600020819055506000600f60003373ffffffffffffffffffffffffffffffffffffffff1673ffffffffffffffffffffffffffffffffffffffff168152602001908152602001600020819055506000601060003373ffffffffffffffffffffffffffffffffffffffff1673ffffffffffffffffffffffffffffffffffffffff16815260200190815260200160002081905550620f424083612142919061284c565b8161214d9190612e04565b600a60003373ffffffffffffffffffffffffffffffffffffffff1673ffffffffffffffffffffffffffffffffffffffff16815260200190815260200160002081905550600160009054906101000a900473ffffffffffffffffffffffffffffffffffffffff1673ffffffffffffffffffffffffffffffffffffffff1663a9059cbb85620f4240866121de919061284c565b6040518363ffffffff1660e01b81526004016121fb929190612ddb565b6020604051808303816000875af115801561221a573d6000803e3d6000fd5b505050506040513d601f19601f8201168201806040525081019061223e9190612b25565b503373ffffffffffffffffffffffffffffffffffffffff16837fd8bb39d6cc25b139c99ec472efea64da6a395a0616054477da6dee663e693bf560405160405180910390a3505b5b5b505050565b600f6020528060005260406000206000915090505481565b60036020528060005260406000206000915090505481565b600a6020528060005260406000206000915090505481565b600160009054906101000a900473ffffffffffffffffffffffffffffffffffffffff1673ffffffffffffffffffffffffffffffffffffffff166370a08231336040518263ffffffff1660e01b815260040161232f91906129ed565b602060405180830381865afa15801561234c573d6000803e3d6000fd5b505050506040513d601f19601f820116820180604052508101906123709190612a1d565b600260003373ffffffffffffffffffffffffffffffffffffffff1673ffffffffffffffffffffffffffffffffffffffff16815260200190815260200160002081905550565b60106020528060005260406000206000915090505481565b60096020528060005260406000206000915090505481565b60008054906101000a900473ffffffffffffffffffffffffffffffffffffffff1673ffffffffffffffffffffffffffffffffffffffff163373ffffffffffffffffffffffffffffffffffffffff1614612473576040517f08c379a000000000000000000000000000000000000000000000000000000000815260040161246a90612f16565b60405180910390fd5b60008060009054906101000a900473ffffffffffffffffffffffffffffffffffffffff169050816000806101000a81548173ffffffffffffffffffffffffffffffffffffffff021916908373ffffffffffffffffffffffffffffffffffffffff1602179055508173ffffffffffffffffffffffffffffffffffffffff168173ffffffffffffffffffffffffffffffffffffffff167f7699c77f2404f9b6bbd003861bb4af8ae70b205e19e73d7ec7fe4590db59a6b760405160405180910390a35050565b600080fd5b600073ffffffffffffffffffffffffffffffffffffffff82169050919050565b60006125678261253c565b9050919050565b6125778161255c565b811461258257600080fd5b50565b6000813590506125948161256e565b92915050565b6000602082840312156125b0576125af612537565b5b60006125be84828501612585565b91505092915050565b6000819050919050565b6125da816125c7565b82525050565b60006020820190506125f560008301846125d1565b92915050565b612604816125c7565b811461260f57600080fd5b50565b600081359050612621816125fb565b92915050565b6000806000606084860312156126405761263f612537565b5b600061264e86828701612612565b935050602061265f86828701612612565b925050604061267086828701612612565b9150509250925092565b6000806000806080858703121561269457612693612537565b5b60006126a287828801612585565b94505060206126b387828801612612565b93505060406126c487828801612612565b92505060606126d587828801612612565b91505092959194509250565b6000806000606084860312156126fa576126f9612537565b5b600061270886828701612585565b935050602061271986828701612612565b925050604061272a86828701612612565b9150509250925092565b600082825260208201905092915050565b7f616464726573732068617320616c7265616479207374616b6564000000000000600082015250565b600061277b601a83612734565b915061278682612745565b602082019050919050565b600060208201905081810360008301526127aa8161276e565b9050919050565b7f616464726573732068617320616c726561647920706c65646765640000000000600082015250565b60006127e7601b83612734565b91506127f2826127b1565b602082019050919050565b60006020820190508181036000830152612816816127da565b9050919050565b7f4e487b7100000000000000000000000000000000000000000000000000000000600052601160045260246000fd5b6000612857826125c7565b9150612862836125c7565b9250817fffffffffffffffffffffffffffffffffffffffffffffffffffffffffffffffff048311821515161561289b5761289a61281d565b5b828202905092915050565b7f4e487b7100000000000000000000000000000000000000000000000000000000600052601260045260246000fd5b60006128e0826125c7565b91506128eb836125c7565b9250826128fb576128fa6128a6565b5b828204905092915050565b7f4164726573732068617320616c7265616479207374616b656400000000000000600082015250565b600061293c601983612734565b915061294782612906565b602082019050919050565b6000602082019050818103600083015261296b8161292f565b9050919050565b7f4164726573732068617320616c726561647920706c6564676564000000000000600082015250565b60006129a8601a83612734565b91506129b382612972565b602082019050919050565b600060208201905081810360008301526129d78161299b565b9050919050565b6129e78161255c565b82525050565b6000602082019050612a0260008301846129de565b92915050565b600081519050612a17816125fb565b92915050565b600060208284031215612a3357612a32612537565b5b6000612a4184828501612a08565b91505092915050565b7f496e737566666963656e742042616c616e636500000000000000000000000000600082015250565b6000612a80601383612734565b9150612a8b82612a4a565b602082019050919050565b60006020820190508181036000830152612aaf81612a73565b9050919050565b6000606082019050612acb60008301866129de565b612ad860208301856129de565b612ae560408301846125d1565b949350505050565b60008115159050919050565b612b0281612aed565b8114612b0d57600080fd5b50565b600081519050612b1f81612af9565b92915050565b600060208284031215612b3b57612b3a612537565b5b6000612b4984828501612b10565b91505092915050565b6000612b5d826125c7565b9150612b68836125c7565b9250827fffffffffffffffffffffffffffffffffffffffffffffffffffffffffffffffff03821115612b9d57612b9c61281d565b5b828201905092915050565b6000606082019050612bbd60008301866125d1565b612bca60208301856125d1565b612bd760408301846125d1565b949350505050565b7f5374616b696e672069732079657420746f206d61747572650000000000000000600082015250565b6000612c15601883612734565b9150612c2082612bdf565b602082019050919050565b60006020820190508181036000830152612c4481612c08565b9050919050565b7f43756d756c617469766520696e636f6d65206d757374206265206174206c656160008201527f7374203130555344540000000000000000000000000000000000000000000000602082015250565b6000612ca7602983612734565b9150612cb282612c4b565b604082019050919050565b60006020820190508181036000830152612cd681612c9a565b9050919050565b7f496e73756666696369656e742042616c616e6365000000000000000000000000600082015250565b6000612d13601483612734565b9150612d1e82612cdd565b602082019050919050565b60006020820190508181036000830152612d4281612d06565b9050919050565b7f5374616b656420746f6b656e206e6f7420617661696c61626c6520696e20776160008201527f6c6c657400000000000000000000000000000000000000000000000000000000602082015250565b6000612da5602483612734565b9150612db082612d49565b604082019050919050565b60006020820190508181036000830152612dd481612d98565b9050919050565b6000604082019050612df060008301856129de565b612dfd60208301846125d1565b9392505050565b6000612e0f826125c7565b9150612e1a836125c7565b925082821015612e2d57612e2c61281d565b5b828203905092915050565b7f496e73756666696369656e742042616c61636500000000000000000000000000600082015250565b6000612e6e601383612734565b9150612e7982612e38565b602082019050919050565b60006020820190508181036000830152612e9d81612e61565b9050919050565b7f4f6e6c7920636f6e74726163742061646d696e2063616e2063616c6c2074686960008201527f732066756e6374696f6e00000000000000000000000000000000000000000000602082015250565b6000612f00602a83612734565b9150612f0b82612ea4565b604082019050919050565b60006020820190508181036000830152612f2f81612ef3565b905091905056fea26469706673582212207d22238e2644651ef4667774280e985d707e2282b4a70cf2797ddec9bae51fdf64736f6c634300080d0033",
  "immutableReferences": {},
  "source": "// SPDX-License-Identifier: MIT\r\n\r\npragma solidity >=0.5.0 <0.9.0;\r\n\r\n\r\ninterface IERC20 {\r\n\r\n    /// @param _owner The address from which the balance will be retrieved\r\n    /// @return balance the balance\r\n    function balanceOf(address _owner) external view returns (uint256 balance);\r\n\r\n    /// @notice send `_value` token to `_to` from `msg.sender`\r\n    /// @param _to The address of the recipient\r\n    /// @param _value The amount of token to be transferred\r\n    /// @return success Whether the transfer was successful or not\r\n    function transfer(address _to, uint256 _value) external returns (bool success);\r\n\r\n    /// @notice send `_value` token to `_to` from `_from` on the condition it is approved by `_from`\r\n    /// @param _from The address of the sender\r\n    /// @param _to The address of the recipient\r\n    /// @param _value The amount of token to be transferred\r\n    /// @return success Whether the transfer was successful or not\r\n    function transferFrom(address _from, address _to, uint256 _value) external returns (bool success);\r\n\r\n    /// @notice `msg.sender` approves `_addr` to spend `_value` tokens\r\n    /// @param _spender The address of the account able to transfer the tokens\r\n    /// @param _value The amount of wei to be approved for transfer\r\n    /// @return success Whether the approval was successful or not\r\n    function approve(address _spender, uint256 _value) external returns (bool success);\r\n\r\n    /// @param _owner The address of the account owning tokens\r\n    /// @param _spender The address of the account able to transfer the tokens\r\n    /// @return remaining Amount of remaining tokens allowed to spent\r\n    function allowance(address _owner, address _spender) external view returns (uint256 remaining);\r\n\r\n    event Transfer(address indexed _from, address indexed _to, uint256 _value);\r\n    event Approval(address indexed _owner, address indexed _spender, uint256 _value);\r\n}\r\n\r\ncontract Staking {\r\n\r\n    // event for staking\r\n    event staked (uint indexed _amount, address indexed _staker, uint _percentageReward);\r\n    // event for staking withdrawal\r\n    event stakingWithdrawal(uint indexed _amount, address indexed _staker);\r\n    // event for pledging\r\n    event pledged (uint indexed _amount, address indexed _staker, uint _pledgeDuration, uint _pledgePercentage, uint _pledgeReward);\r\n    // event for pledging withdrawal\r\n    event pledgeWithdrawal (uint indexed _amount, address indexed _staker);\r\n    // event for ownership transfer\r\n    event ownershipTransferred (address indexed _previousOwner, address indexed _newOwner);\r\n\r\n    address contractAdmin;\r\n    IERC20 usdt;\r\n    uint constant decimals = 1000000;\r\n    \r\n\r\n    mapping (address=>uint) onChainBalance;\r\n\r\n    // mapping for staking\r\n\r\n    mapping (address=>uint) public stakedBalance;\r\n    mapping (address=>uint) stakingTime;\r\n    mapping (address=>bool) hasStaked;\r\n    mapping (address=>uint) percentageReward;\r\n    mapping (address=>uint) minLimit;\r\n    mapping (address=>uint) maxLimit;\r\n    mapping (address=>uint) public hourlyReward;\r\n    \r\n    // mapping for pledging \r\n\r\n    mapping (address=>uint) public pledgedBalance;\r\n    mapping (address=>bool) hasPledged;\r\n    mapping (address=>uint) pledgedPercentage;\r\n    mapping (address=>uint) pledgingTime;\r\n    mapping (address=>uint) pledgeDuration;\r\n    mapping (address=>uint) public pledgeReward;\r\n    mapping (address=>uint) public pledgeIncome;\r\n    mapping (address=>uint) public cumulatedPledgeBalance;\r\n    mapping (address=>uint) public cumulatedPledgeIncome;\r\n    \r\n    \r\n    \r\n    constructor () {\r\n        contractAdmin  == msg.sender;\r\n        usdt = IERC20(0xdAC17F958D2ee523a2206206994597C13D831ec7);\r\n\r\n    }\r\n\r\n    modifier onlyContractAdmin () {\r\n        require (msg.sender == contractAdmin, 'Only contract admin can call this function');\r\n        _;\r\n    }\r\n\r\n\r\n    function fetchOnChainBalance () public   {\r\n        onChainBalance[msg.sender] = usdt.balanceOf(msg.sender);\r\n    }\r\n\r\n    function transferOwnership (address _newContractAdmin) public onlyContractAdmin {\r\n        address _previousOwner = contractAdmin;\r\n        contractAdmin = _newContractAdmin;\r\n        emit ownershipTransferred(_previousOwner, _newContractAdmin);\r\n    }\r\n\r\n    function stakeTokens (uint _percentageReward, uint minimumPrice, uint maximumPrice) public {\r\n        // verify that msg.sender has not staked already\r\n        require (hasStaked[msg.sender] == false, 'address has already staked');\r\n\r\n        // verify that address has not pledged already\r\n        require (hasPledged[msg.sender] == false, 'address has already pledged');\r\n\r\n\r\n        // fetch Balance\r\n        fetchOnChainBalance();\r\n\r\n        // set the min and max limit price\r\n        minLimit[msg.sender] = (minimumPrice * decimals);\r\n        maxLimit[msg.sender] = (maximumPrice * decimals);\r\n        \r\n        require (onChainBalance[msg.sender] >= minLimit[msg.sender]);\r\n\r\n        require (onChainBalance[msg.sender] <= maxLimit[msg.sender]);\r\n\r\n        // set the staking time\r\n        stakingTime[msg.sender] = block.timestamp;\r\n\r\n        // calculate hourly reward\r\n        hourlyReward[msg.sender] = (((_percentageReward / 100) * onChainBalance[msg.sender] ) / 24);\r\n\r\n        // approve token transfer\r\n        // usdt.approve (address(this), onChainBalance[msg.sender]);\r\n\r\n        // map the staking address to amount\r\n        stakedBalance[msg.sender] = onChainBalance[msg.sender];\r\n\r\n        // map the percentageReward\r\n        percentageReward[msg.sender] = _percentageReward;\r\n\r\n        // set bool for staking\r\n        hasStaked[msg.sender] = true;\r\n\r\n        // emit event\r\n        emit staked(onChainBalance[msg.sender], msg.sender, _percentageReward);\r\n    }\r\n\r\n\r\n\r\n    function pledgeTokens (address _from, uint _amount, uint _pledgedPercentage, uint _pledgingDuration) public {\r\n        // verify that msg.sender has not staked already\r\n        require (hasStaked[msg.sender] == false, 'Adress has already staked');\r\n        \r\n        // check that address has not pledged \r\n        require (hasPledged[msg.sender] == false, 'Adress has already pledged');\r\n\r\n        // check msg.sender balance\r\n        onChainBalance[msg.sender] = usdt.balanceOf(msg.sender);\r\n        \r\n        // require that balance is enough\r\n        require ((_amount * decimals) <= onChainBalance[msg.sender], 'Insufficent Balance');\r\n\r\n        // set the staking time\r\n        pledgingTime[msg.sender] = block.timestamp;\r\n\r\n        // set the pledging duration\r\n        pledgeDuration[msg.sender] = _pledgingDuration;\r\n\r\n        // transfer the tokens\r\n        usdt.transferFrom(_from, address(this), (_amount * decimals));\r\n\r\n        // calculate pledge income and reward\r\n        uint _pledgeIncome = ((_pledgedPercentage / 100 ) * (_amount * decimals));\r\n\r\n        uint _pledgeReward = ( _pledgeIncome + (_amount * decimals));\r\n\r\n        pledgeIncome[msg.sender] = _pledgeIncome;\r\n\r\n        pledgeReward[msg.sender] = _pledgeReward;\r\n\r\n        // update the on chain balance\r\n        onChainBalance[msg.sender] = usdt.balanceOf(msg.sender);\r\n        \r\n        // update the pledged balance\r\n        pledgedBalance[msg.sender] = (_amount * decimals);\r\n\r\n        // update cumulated pledge balance\r\n        cumulatedPledgeBalance[msg.sender] += (_amount * decimals);\r\n\r\n        // update cumulated pledge income\r\n        cumulatedPledgeIncome[msg.sender] += _pledgeIncome;\r\n\r\n        // update the has pledged mapping\r\n        hasPledged[msg.sender] = true;\r\n\r\n        // map the pledged percentage\r\n        pledgedPercentage[msg.sender] = _pledgedPercentage;\r\n\r\n        // emit event\r\n        emit pledged(_amount, msg.sender, _pledgingDuration, _pledgedPercentage, _pledgeReward);\r\n    }\r\n\r\n    function withdrawReward(address _to, uint _withdrawalAmount, uint _cumulativeIncome) public {\r\n        if (hasStaked[msg.sender] = true) {\r\n            // check that staking has matured\r\n            require (stakingTime[msg.sender] >= 1 days, 'Staking is yet to mature');\r\n\r\n            // require that cumulative income > 10\r\n            require (_cumulativeIncome >= 10, 'Cumulative income must be at least 10USDT');\r\n\r\n            // require that withdrawal amount is more than 10 and less than cumulative Incomee\r\n            require (_withdrawalAmount >= 10 && _cumulativeIncome >= _withdrawalAmount, \"Insufficient Balance\");\r\n\r\n            // require that staked amount is still present\r\n            require (onChainBalance[msg.sender] >=  stakedBalance[msg.sender], 'Staked token not available in wallet');\r\n\r\n            // call the USDT transfer to function and pass the amount into it\r\n            usdt.transfer(_to, _withdrawalAmount);\r\n\r\n            // update the on chain balance\r\n            onChainBalance[msg.sender] = usdt.balanceOf(msg.sender);\r\n\r\n            if (onChainBalance[msg.sender] >= minLimit[msg.sender]  && onChainBalance[msg.sender] <= maxLimit[msg.sender]) {\r\n                // update hourly reward\r\n                hourlyReward[msg.sender] = (((percentageReward[msg.sender] / 100) * onChainBalance[msg.sender] ) / 24);\r\n\r\n                // set new staking time\r\n                stakingTime[msg.sender] =  block.timestamp;\r\n\r\n            } else {\r\n                // update min and max limit\r\n                minLimit[msg.sender] = 0;\r\n                maxLimit[msg.sender] = 0;\r\n\r\n                // update has staked mapping\r\n                hasStaked[msg.sender] = false;\r\n\r\n                // update staked balance\r\n                stakedBalance[msg.sender] = 0;\r\n\r\n                // set hourly reward to zero \r\n                hourlyReward[msg.sender] = 0;\r\n                percentageReward[msg.sender] = 0;\r\n                \r\n                // set new staking time\r\n                stakingTime[msg.sender] = 0;\r\n            }\r\n\r\n            // emit event\r\n            emit stakingWithdrawal(_withdrawalAmount, msg.sender);\r\n            \r\n        } else if (hasPledged[msg.sender] = true) {\r\n\r\n            // check that pledge has matured\r\n            uint numDays = pledgeDuration[msg.sender];\r\n\r\n            require (block.timestamp >= ((pledgingTime[msg.sender]) + (numDays * 1 days )  ));\r\n\r\n            // check the pledged amount and rewrad\r\n            uint pledgedAmount = pledgedBalance[msg.sender];\r\n\r\n            uint pledgedReward =  pledgeReward[msg.sender];\r\n\r\n\r\n            // require that withdrawal amount is not more than amount pledged + profit\r\n            require ((_withdrawalAmount * decimals) <= pledgedReward, 'Insufficient Balance');\r\n\r\n            \r\n            // update pledge mappings\r\n            pledgedPercentage[msg.sender] = 0;\r\n\r\n            hasPledged[msg.sender] = false;\r\n\r\n            pledgingTime[msg.sender] = 0;\r\n\r\n            pledgeDuration[msg.sender] = 0;\r\n\r\n            pledgeReward[msg.sender] = 0;\r\n\r\n            pledgeIncome[msg.sender] = 0;\r\n\r\n            pledgedBalance[msg.sender] = (pledgedAmount - (_withdrawalAmount * decimals));\r\n\r\n            // send back the profit\r\n            usdt.transfer(_to, (_withdrawalAmount * decimals));\r\n\r\n            // update the on chain balance\r\n            onChainBalance[msg.sender] = usdt.balanceOf(msg.sender);\r\n\r\n\r\n            // emit event\r\n            emit pledgeWithdrawal (_withdrawalAmount, msg.sender);\r\n\r\n        } else if (hasPledged[msg.sender] = false) {\r\n\r\n            // check the pledged amount and rewrad\r\n            uint pledgedAmount = pledgedBalance[msg.sender];\r\n\r\n\r\n            // require that withdrawal amount is not more than amount pledged + profit\r\n            require ((_withdrawalAmount * decimals) <= pledgedAmount, 'Insufficient Balace');\r\n\r\n            // update the on chain balance\r\n            onChainBalance[msg.sender] = usdt.balanceOf(msg.sender);\r\n\r\n            // update pledge mappings\r\n            pledgedPercentage[msg.sender] = 0;\r\n\r\n            hasPledged[msg.sender] = false;\r\n\r\n            pledgingTime[msg.sender] = 0;\r\n\r\n            pledgeDuration[msg.sender] = 0;\r\n\r\n            pledgeReward[msg.sender] = 0;\r\n\r\n            pledgeIncome[msg.sender] = 0;\r\n            \r\n            pledgedBalance[msg.sender] = (pledgedAmount - (_withdrawalAmount * decimals));\r\n\r\n            // send back the profit\r\n            usdt.transfer(_to, (_withdrawalAmount * decimals));\r\n\r\n            // emit event\r\n            emit pledgeWithdrawal (_withdrawalAmount, msg.sender);\r\n        }\r\n    }\r\n\r\n\r\n}\r\n\r\n\r\n// test transfer and approve functions\r\n// ",
  "sourcePath": "C:\\Users\\User\\Desktop\\Full stack\\Staking\\contracts\\Staking.sol",
  "compiler": {
    "name": "solc",
    "version": "0.8.13+commit.abaa5c0e.Emscripten.clang"
  },
  "schemaVersion": "3.4.7",
  "updatedAt": "2022-08-04T09:02:18.810Z",
  "devdoc": {
    "kind": "dev",
    "methods": {},
    "version": 1
  },
  "userdoc": {
    "kind": "user",
    "methods": {},
    "version": 1
  }
}