{
  "contractName": "Staking",
  "abi": [
    {
      "inputs": [],
      "stateMutability": "nonpayable",
      "type": "constructor"
    },
    {
      "anonymous": false,
      "inputs": [
        {
          "indexed": false,
          "internalType": "address",
          "name": "referee",
          "type": "address"
        },
        {
          "indexed": false,
          "internalType": "address",
          "name": "referrer",
          "type": "address"
        }
      ],
      "name": "RegisteredReferer",
      "type": "event"
    },
    {
      "anonymous": false,
      "inputs": [
        {
          "indexed": false,
          "internalType": "address",
          "name": "referee",
          "type": "address"
        },
        {
          "indexed": false,
          "internalType": "address",
          "name": "referrer",
          "type": "address"
        },
        {
          "indexed": false,
          "internalType": "string",
          "name": "reason",
          "type": "string"
        }
      ],
      "name": "RegisteredRefererFailed",
      "type": "event"
    },
    {
      "anonymous": false,
      "inputs": [
        {
          "indexed": true,
          "internalType": "address",
          "name": "_previousOwner",
          "type": "address"
        },
        {
          "indexed": true,
          "internalType": "address",
          "name": "_newOwner",
          "type": "address"
        }
      ],
      "name": "ownershipTransferred",
      "type": "event"
    },
    {
      "anonymous": false,
      "inputs": [
        {
          "indexed": true,
          "internalType": "uint256",
          "name": "_amount",
          "type": "uint256"
        },
        {
          "indexed": true,
          "internalType": "address",
          "name": "_staker",
          "type": "address"
        }
      ],
      "name": "pledgeWithdrawal",
      "type": "event"
    },
    {
      "anonymous": false,
      "inputs": [
        {
          "indexed": true,
          "internalType": "uint256",
          "name": "_amount",
          "type": "uint256"
        },
        {
          "indexed": true,
          "internalType": "address",
          "name": "_staker",
          "type": "address"
        },
        {
          "indexed": false,
          "internalType": "uint256",
          "name": "_pledgeDuration",
          "type": "uint256"
        }
      ],
      "name": "pledged",
      "type": "event"
    },
    {
      "anonymous": false,
      "inputs": [
        {
          "indexed": true,
          "internalType": "uint256",
          "name": "_amount",
          "type": "uint256"
        },
        {
          "indexed": true,
          "internalType": "address",
          "name": "_staker",
          "type": "address"
        }
      ],
      "name": "staked",
      "type": "event"
    },
    {
      "anonymous": false,
      "inputs": [
        {
          "indexed": true,
          "internalType": "uint256",
          "name": "_amount",
          "type": "uint256"
        },
        {
          "indexed": true,
          "internalType": "address",
          "name": "_staker",
          "type": "address"
        }
      ],
      "name": "stakingWithdrawal",
      "type": "event"
    },
    {
      "inputs": [
        {
          "internalType": "address",
          "name": "",
          "type": "address"
        }
      ],
      "name": "cumulatedPledgeBalance",
      "outputs": [
        {
          "internalType": "uint256",
          "name": "",
          "type": "uint256"
        }
      ],
      "stateMutability": "view",
      "type": "function",
      "constant": true
    },
    {
      "inputs": [
        {
          "internalType": "address",
          "name": "",
          "type": "address"
        }
      ],
      "name": "cumulatedPledgeIncome",
      "outputs": [
        {
          "internalType": "uint256",
          "name": "",
          "type": "uint256"
        }
      ],
      "stateMutability": "view",
      "type": "function",
      "constant": true
    },
    {
      "inputs": [],
      "name": "decimals",
      "outputs": [
        {
          "internalType": "uint256",
          "name": "",
          "type": "uint256"
        }
      ],
      "stateMutability": "view",
      "type": "function",
      "constant": true
    },
    {
      "inputs": [
        {
          "internalType": "address",
          "name": "",
          "type": "address"
        }
      ],
      "name": "firstGenerationIncome",
      "outputs": [
        {
          "internalType": "uint256",
          "name": "",
          "type": "uint256"
        }
      ],
      "stateMutability": "view",
      "type": "function",
      "constant": true
    },
    {
      "inputs": [
        {
          "internalType": "address",
          "name": "",
          "type": "address"
        }
      ],
      "name": "firstGenerationReferral",
      "outputs": [
        {
          "internalType": "uint256",
          "name": "",
          "type": "uint256"
        }
      ],
      "stateMutability": "view",
      "type": "function",
      "constant": true
    },
    {
      "inputs": [
        {
          "internalType": "address",
          "name": "",
          "type": "address"
        }
      ],
      "name": "hasPledged",
      "outputs": [
        {
          "internalType": "bool",
          "name": "",
          "type": "bool"
        }
      ],
      "stateMutability": "view",
      "type": "function",
      "constant": true
    },
    {
      "inputs": [
        {
          "internalType": "address",
          "name": "",
          "type": "address"
        }
      ],
      "name": "hasStaked",
      "outputs": [
        {
          "internalType": "bool",
          "name": "",
          "type": "bool"
        }
      ],
      "stateMutability": "view",
      "type": "function",
      "constant": true
    },
    {
      "inputs": [
        {
          "internalType": "address",
          "name": "",
          "type": "address"
        }
      ],
      "name": "hourlyIncome",
      "outputs": [
        {
          "internalType": "uint256",
          "name": "",
          "type": "uint256"
        }
      ],
      "stateMutability": "view",
      "type": "function",
      "constant": true
    },
    {
      "inputs": [
        {
          "internalType": "address",
          "name": "",
          "type": "address"
        }
      ],
      "name": "onChainBalance",
      "outputs": [
        {
          "internalType": "uint256",
          "name": "",
          "type": "uint256"
        }
      ],
      "stateMutability": "view",
      "type": "function",
      "constant": true
    },
    {
      "inputs": [
        {
          "internalType": "address",
          "name": "",
          "type": "address"
        }
      ],
      "name": "pledgeIncome",
      "outputs": [
        {
          "internalType": "uint256",
          "name": "",
          "type": "uint256"
        }
      ],
      "stateMutability": "view",
      "type": "function",
      "constant": true
    },
    {
      "inputs": [
        {
          "internalType": "address",
          "name": "",
          "type": "address"
        }
      ],
      "name": "pledgedBalance",
      "outputs": [
        {
          "internalType": "uint256",
          "name": "",
          "type": "uint256"
        }
      ],
      "stateMutability": "view",
      "type": "function",
      "constant": true
    },
    {
      "inputs": [
        {
          "internalType": "address",
          "name": "",
          "type": "address"
        }
      ],
      "name": "pledgingTime",
      "outputs": [
        {
          "internalType": "uint256",
          "name": "",
          "type": "uint256"
        }
      ],
      "stateMutability": "view",
      "type": "function",
      "constant": true
    },
    {
      "inputs": [
        {
          "internalType": "address",
          "name": "",
          "type": "address"
        }
      ],
      "name": "referralIncome",
      "outputs": [
        {
          "internalType": "uint256",
          "name": "",
          "type": "uint256"
        }
      ],
      "stateMutability": "view",
      "type": "function",
      "constant": true
    },
    {
      "inputs": [
        {
          "internalType": "address",
          "name": "",
          "type": "address"
        }
      ],
      "name": "secondGenerationIncome",
      "outputs": [
        {
          "internalType": "uint256",
          "name": "",
          "type": "uint256"
        }
      ],
      "stateMutability": "view",
      "type": "function",
      "constant": true
    },
    {
      "inputs": [
        {
          "internalType": "address",
          "name": "",
          "type": "address"
        }
      ],
      "name": "secondGenerationReferral",
      "outputs": [
        {
          "internalType": "uint256",
          "name": "",
          "type": "uint256"
        }
      ],
      "stateMutability": "view",
      "type": "function",
      "constant": true
    },
    {
      "inputs": [
        {
          "internalType": "address",
          "name": "",
          "type": "address"
        }
      ],
      "name": "stakingTime",
      "outputs": [
        {
          "internalType": "uint256",
          "name": "",
          "type": "uint256"
        }
      ],
      "stateMutability": "view",
      "type": "function",
      "constant": true
    },
    {
      "inputs": [
        {
          "internalType": "address",
          "name": "",
          "type": "address"
        }
      ],
      "name": "teamSize",
      "outputs": [
        {
          "internalType": "uint256",
          "name": "",
          "type": "uint256"
        }
      ],
      "stateMutability": "view",
      "type": "function",
      "constant": true
    },
    {
      "inputs": [
        {
          "internalType": "address",
          "name": "",
          "type": "address"
        }
      ],
      "name": "thirdGenerationIncome",
      "outputs": [
        {
          "internalType": "uint256",
          "name": "",
          "type": "uint256"
        }
      ],
      "stateMutability": "view",
      "type": "function",
      "constant": true
    },
    {
      "inputs": [
        {
          "internalType": "address",
          "name": "",
          "type": "address"
        }
      ],
      "name": "thirdGenerationReferral",
      "outputs": [
        {
          "internalType": "uint256",
          "name": "",
          "type": "uint256"
        }
      ],
      "stateMutability": "view",
      "type": "function",
      "constant": true
    },
    {
      "inputs": [],
      "name": "fetchOnChainBalance",
      "outputs": [],
      "stateMutability": "nonpayable",
      "type": "function"
    },
    {
      "inputs": [
        {
          "internalType": "address",
          "name": "_newContractAdmin",
          "type": "address"
        }
      ],
      "name": "transferOwnership",
      "outputs": [],
      "stateMutability": "nonpayable",
      "type": "function"
    },
    {
      "inputs": [
        {
          "internalType": "uint256",
          "name": "minimumPrice",
          "type": "uint256"
        },
        {
          "internalType": "uint256",
          "name": "maximumPrice",
          "type": "uint256"
        },
        {
          "internalType": "uint256",
          "name": "_stakingPercentage",
          "type": "uint256"
        }
      ],
      "name": "stakeTokens",
      "outputs": [
        {
          "internalType": "bool",
          "name": "",
          "type": "bool"
        }
      ],
      "stateMutability": "nonpayable",
      "type": "function"
    },
    {
      "inputs": [
        {
          "internalType": "uint256",
          "name": "_amount",
          "type": "uint256"
        },
        {
          "internalType": "uint256",
          "name": "_pledgingDuration",
          "type": "uint256"
        },
        {
          "internalType": "uint256",
          "name": "_pledgePercentage",
          "type": "uint256"
        },
        {
          "internalType": "address",
          "name": "referrer",
          "type": "address"
        }
      ],
      "name": "pledgeTokens",
      "outputs": [],
      "stateMutability": "nonpayable",
      "type": "function"
    },
    {
      "inputs": [
        {
          "internalType": "uint256",
          "name": "_withdrawalAmount",
          "type": "uint256"
        }
      ],
      "name": "withdrawReward",
      "outputs": [],
      "stateMutability": "nonpayable",
      "type": "function"
    }
  ],
  "bytecode": "0x608060405234801561001057600080fd5b5073db339be8e04db248ea2bdd7c308c5589c121c6bb73ffffffffffffffffffffffffffffffffffffffff1660008054906101000a90505050736ee856ae55b6e1a249f04cd3b947141bc146273c600160006101000a81548173ffffffffffffffffffffffffffffffffffffffff021916908373ffffffffffffffffffffffffffffffffffffffff1602179055506143f6806100ad6000396000f3fe608060405234801561001057600080fd5b50600436106101585760003560e01c80635a1d5e9b116100c3578063ab410fae1161007c578063ab410fae1461045d578063c31492301461048d578063c93c8f34146104bd578063d132f325146104ed578063efd7e8d01461051d578063f2fde38b1461054d57610158565b80635a1d5e9b146103635780636eb2ac2e1461039357806377e8632a146103c357806399607ce6146103f35780639e5b965f14610423578063aa559b7c1461045357610158565b8063260045ec11610115578063260045ec1461027d5780632b7a8feb146102ad578063313ce567146102dd57806349c2e573146102fb578063523a3f0814610317578063583d42fd1461033357610158565b806302c7410d1461015d5780630352234f1461018d5780630f5d31f5146101bd5780631142ee1d146101ed578063116ebe1b1461021d5780631ceb7ee61461024d575b600080fd5b61017760048036038101906101729190613807565b610569565b604051610184919061384d565b60405180910390f35b6101a760048036038101906101a29190613807565b610581565b6040516101b4919061384d565b60405180910390f35b6101d760048036038101906101d29190613807565b610599565b6040516101e4919061384d565b60405180910390f35b61020760048036038101906102029190613807565b6105b1565b604051610214919061384d565b60405180910390f35b61023760048036038101906102329190613807565b6105c9565b604051610244919061384d565b60405180910390f35b61026760048036038101906102629190613894565b6105e1565b6040516102749190613902565b60405180910390f35b61029760048036038101906102929190613807565b610bb6565b6040516102a4919061384d565b60405180910390f35b6102c760048036038101906102c29190613807565b610bce565b6040516102d49190613902565b60405180910390f35b6102e5610bee565b6040516102f2919061384d565b60405180910390f35b6103156004803603810190610310919061391d565b610bf5565b005b610331600480360381019061032c9190613984565b61132c565b005b61034d60048036038101906103489190613807565b6125e2565b60405161035a919061384d565b60405180910390f35b61037d60048036038101906103789190613807565b6125fa565b60405161038a919061384d565b60405180910390f35b6103ad60048036038101906103a89190613807565b612612565b6040516103ba919061384d565b60405180910390f35b6103dd60048036038101906103d89190613807565b61262a565b6040516103ea919061384d565b60405180910390f35b61040d60048036038101906104089190613807565b612642565b60405161041a919061384d565b60405180910390f35b61043d60048036038101906104389190613807565b61265a565b60405161044a919061384d565b60405180910390f35b61045b612672565b005b61047760048036038101906104729190613807565b612753565b604051610484919061384d565b60405180910390f35b6104a760048036038101906104a29190613807565b61276b565b6040516104b4919061384d565b60405180910390f35b6104d760048036038101906104d29190613807565b612783565b6040516104e49190613902565b60405180910390f35b61050760048036038101906105029190613807565b6127a3565b604051610514919061384d565b60405180910390f35b61053760048036038101906105329190613807565b6127bb565b604051610544919061384d565b60405180910390f35b61056760048036038101906105629190613807565b6127d3565b005b601b6020528060005260406000206000915090505481565b601e6020528060005260406000206000915090505481565b60156020528060005260406000206000915090505481565b601c6020528060005260406000206000915090505481565b60146020528060005260406000206000915090505481565b6000801515600560003373ffffffffffffffffffffffffffffffffffffffff1673ffffffffffffffffffffffffffffffffffffffff16815260200190815260200160002060009054906101000a900460ff16151514610675576040517f08c379a000000000000000000000000000000000000000000000000000000000815260040161066c90613a0e565b60405180910390fd5b60001515600e60003373ffffffffffffffffffffffffffffffffffffffff1673ffffffffffffffffffffffffffffffffffffffff16815260200190815260200160002060009054906101000a900460ff16151514610708576040517f08c379a00000000000000000000000000000000000000000000000000000000081526004016106ff90613a7a565b60405180910390fd5b600160009054906101000a900473ffffffffffffffffffffffffffffffffffffffff1673ffffffffffffffffffffffffffffffffffffffff1663dd62ed3e3360008054906101000a900473ffffffffffffffffffffffffffffffffffffffff166040518363ffffffff1660e01b8152600401610785929190613aa9565b602060405180830381865afa1580156107a2573d6000803e3d6000fd5b505050506040513d601f19601f820116820180604052508101906107c69190613ae7565b600860003373ffffffffffffffffffffffffffffffffffffffff1673ffffffffffffffffffffffffffffffffffffffff168152602001908152602001600020819055506000600860003373ffffffffffffffffffffffffffffffffffffffff1673ffffffffffffffffffffffffffffffffffffffff16815260200190815260200160002054905084600660003373ffffffffffffffffffffffffffffffffffffffff1673ffffffffffffffffffffffffffffffffffffffff1681526020019081526020016000208190555083600760003373ffffffffffffffffffffffffffffffffffffffff1673ffffffffffffffffffffffffffffffffffffffff16815260200190815260200160002081905550600660003373ffffffffffffffffffffffffffffffffffffffff1673ffffffffffffffffffffffffffffffffffffffff16815260200190815260200160002054811015610957576040517f08c379a000000000000000000000000000000000000000000000000000000000815260040161094e90613b60565b60405180910390fd5b600760003373ffffffffffffffffffffffffffffffffffffffff1673ffffffffffffffffffffffffffffffffffffffff168152602001908152602001600020548111156109d9576040517f08c379a00000000000000000000000000000000000000000000000000000000081526004016109d090613b60565b60405180910390fd5b600061271082856109ea9190613baf565b6109f49190613c38565b905080600a60003373ffffffffffffffffffffffffffffffffffffffff1673ffffffffffffffffffffffffffffffffffffffff16815260200190815260200160002081905550601881610a479190613c38565b600b60003373ffffffffffffffffffffffffffffffffffffffff1673ffffffffffffffffffffffffffffffffffffffff1681526020019081526020016000208190555042600460003373ffffffffffffffffffffffffffffffffffffffff1673ffffffffffffffffffffffffffffffffffffffff16815260200190815260200160002081905550600860003373ffffffffffffffffffffffffffffffffffffffff1673ffffffffffffffffffffffffffffffffffffffff16815260200190815260200160002054600360003373ffffffffffffffffffffffffffffffffffffffff1673ffffffffffffffffffffffffffffffffffffffff168152602001908152602001600020819055506001600560003373ffffffffffffffffffffffffffffffffffffffff1673ffffffffffffffffffffffffffffffffffffffff16815260200190815260200160002060006101000a81548160ff0219169083151502179055506001925050509392505050565b601a6020528060005260406000206000915090505481565b600e6020528060005260406000206000915054906101000a900460ff1681565b620f424081565b60001515600560003373ffffffffffffffffffffffffffffffffffffffff1673ffffffffffffffffffffffffffffffffffffffff16815260200190815260200160002060009054906101000a900460ff16151514610c88576040517f08c379a0000000000000000000000000000000000000000000000000000000008152600401610c7f90613cb5565b60405180910390fd5b60001515600e60003373ffffffffffffffffffffffffffffffffffffffff1673ffffffffffffffffffffffffffffffffffffffff16815260200190815260200160002060009054906101000a900460ff16151514610d1b576040517f08c379a0000000000000000000000000000000000000000000000000000000008152600401610d1290613d21565b60405180910390fd5b600160009054906101000a900473ffffffffffffffffffffffffffffffffffffffff1673ffffffffffffffffffffffffffffffffffffffff166370a08231336040518263ffffffff1660e01b8152600401610d769190613d41565b602060405180830381865afa158015610d93573d6000803e3d6000fd5b505050506040513d601f19601f82011682018060405250810190610db79190613ae7565b600260003373ffffffffffffffffffffffffffffffffffffffff1673ffffffffffffffffffffffffffffffffffffffff16815260200190815260200160002081905550600260003373ffffffffffffffffffffffffffffffffffffffff1673ffffffffffffffffffffffffffffffffffffffff16815260200190815260200160002054841115610e7c576040517f08c379a0000000000000000000000000000000000000000000000000000000008152600401610e7390613da8565b60405180910390fd5b600160009054906101000a900473ffffffffffffffffffffffffffffffffffffffff1673ffffffffffffffffffffffffffffffffffffffff166323b872dd3360008054906101000a900473ffffffffffffffffffffffffffffffffffffffff16876040518463ffffffff1660e01b8152600401610efb93929190613dc8565b6020604051808303816000875af1158015610f1a573d6000803e3d6000fd5b505050506040513d601f19601f82011682018060405250810190610f3e9190613e2b565b50610f4881612925565b5042601660003373ffffffffffffffffffffffffffffffffffffffff1673ffffffffffffffffffffffffffffffffffffffff1681526020019081526020016000208190555082601260003373ffffffffffffffffffffffffffffffffffffffff1673ffffffffffffffffffffffffffffffffffffffff16815260200190815260200160002081905550600160009054906101000a900473ffffffffffffffffffffffffffffffffffffffff1673ffffffffffffffffffffffffffffffffffffffff166370a08231336040518263ffffffff1660e01b815260040161102c9190613d41565b602060405180830381865afa158015611049573d6000803e3d6000fd5b505050506040513d601f19601f8201168201806040525081019061106d9190613ae7565b600260003373ffffffffffffffffffffffffffffffffffffffff1673ffffffffffffffffffffffffffffffffffffffff1681526020019081526020016000208190555081601360003373ffffffffffffffffffffffffffffffffffffffff1673ffffffffffffffffffffffffffffffffffffffff1681526020019081526020016000208190555061271084836111039190613baf565b61110d9190613c38565b601060003373ffffffffffffffffffffffffffffffffffffffff1673ffffffffffffffffffffffffffffffffffffffff1681526020019081526020016000208190555083600f60003373ffffffffffffffffffffffffffffffffffffffff1673ffffffffffffffffffffffffffffffffffffffff1681526020019081526020016000208190555083601460003373ffffffffffffffffffffffffffffffffffffffff1673ffffffffffffffffffffffffffffffffffffffff16815260200190815260200160002060008282546111e39190613e58565b92505081905550601060003373ffffffffffffffffffffffffffffffffffffffff1673ffffffffffffffffffffffffffffffffffffffff16815260200190815260200160002054601560003373ffffffffffffffffffffffffffffffffffffffff1673ffffffffffffffffffffffffffffffffffffffff16815260200190815260200160002060008282546112789190613e58565b925050819055506001600e60003373ffffffffffffffffffffffffffffffffffffffff1673ffffffffffffffffffffffffffffffffffffffff16815260200190815260200160002060006101000a81548160ff0219169083151502179055503373ffffffffffffffffffffffffffffffffffffffff16847f2d91339bdadb95a943bdc17ebdaf3b4559022759b50e57c80680a72a8e284b918560405161131e919061384d565b60405180910390a350505050565b60011515600560003373ffffffffffffffffffffffffffffffffffffffff1673ffffffffffffffffffffffffffffffffffffffff16815260200190815260200160002060009054906101000a900460ff16151503611c325762015180600460003373ffffffffffffffffffffffffffffffffffffffff1673ffffffffffffffffffffffffffffffffffffffff168152602001908152602001600020546113d29190613baf565b421015611414576040517f08c379a000000000000000000000000000000000000000000000000000000000815260040161140b90613efa565b60405180910390fd5b6000600460003373ffffffffffffffffffffffffffffffffffffffff1673ffffffffffffffffffffffffffffffffffffffff16815260200190815260200160002054905060004290506000600b60003373ffffffffffffffffffffffffffffffffffffffff1673ffffffffffffffffffffffffffffffffffffffff16815260200190815260200160002054905080610e1084846114b19190613f1a565b6114bb9190613c38565b6114c59190613baf565b600d60003373ffffffffffffffffffffffffffffffffffffffff1673ffffffffffffffffffffffffffffffffffffffff168152602001908152602001600020819055506000600d60003373ffffffffffffffffffffffffffffffffffffffff1673ffffffffffffffffffffffffffffffffffffffff1681526020019081526020016000205490506000600c60003373ffffffffffffffffffffffffffffffffffffffff1673ffffffffffffffffffffffffffffffffffffffff1681526020019081526020016000205490506000818361159e9190613e58565b9050629896808110156115e6576040517f08c379a00000000000000000000000000000000000000000000000000000000081526004016115dd90613fc0565b60405180910390fd5b6298968087101580156115f95750868110155b611638576040517f08c379a000000000000000000000000000000000000000000000000000000000815260040161162f9061402c565b60405180910390fd5b600160009054906101000a900473ffffffffffffffffffffffffffffffffffffffff1673ffffffffffffffffffffffffffffffffffffffff166370a08231336040518263ffffffff1660e01b81526004016116939190613d41565b602060405180830381865afa1580156116b0573d6000803e3d6000fd5b505050506040513d601f19601f820116820180604052508101906116d49190613ae7565b600260003373ffffffffffffffffffffffffffffffffffffffff1673ffffffffffffffffffffffffffffffffffffffff16815260200190815260200160002081905550600360003373ffffffffffffffffffffffffffffffffffffffff1673ffffffffffffffffffffffffffffffffffffffff16815260200190815260200160002054600260003373ffffffffffffffffffffffffffffffffffffffff1673ffffffffffffffffffffffffffffffffffffffff1681526020019081526020016000205410156117d8576040517f08c379a00000000000000000000000000000000000000000000000000000000081526004016117cf906140be565b60405180910390fd5b600160009054906101000a900473ffffffffffffffffffffffffffffffffffffffff1673ffffffffffffffffffffffffffffffffffffffff166323b872dd60008054906101000a900473ffffffffffffffffffffffffffffffffffffffff16338a6040518463ffffffff1660e01b815260040161185793929190613dc8565b6020604051808303816000875af1158015611876573d6000803e3d6000fd5b505050506040513d601f19601f8201168201806040525081019061189a9190613e2b565b50600160009054906101000a900473ffffffffffffffffffffffffffffffffffffffff1673ffffffffffffffffffffffffffffffffffffffff1663dd62ed3e3360008054906101000a900473ffffffffffffffffffffffffffffffffffffffff166040518363ffffffff1660e01b8152600401611918929190613aa9565b602060405180830381865afa158015611935573d6000803e3d6000fd5b505050506040513d601f19601f820116820180604052508101906119599190613ae7565b600860003373ffffffffffffffffffffffffffffffffffffffff1673ffffffffffffffffffffffffffffffffffffffff1681526020019081526020016000208190555086836119a89190613f1a565b600c60003373ffffffffffffffffffffffffffffffffffffffff1673ffffffffffffffffffffffffffffffffffffffff16815260200190815260200160002081905550600660003373ffffffffffffffffffffffffffffffffffffffff1673ffffffffffffffffffffffffffffffffffffffff16815260200190815260200160002054600860003373ffffffffffffffffffffffffffffffffffffffff1673ffffffffffffffffffffffffffffffffffffffff1681526020019081526020016000205410158015611af75750600760003373ffffffffffffffffffffffffffffffffffffffff1673ffffffffffffffffffffffffffffffffffffffff16815260200190815260200160002054600860003373ffffffffffffffffffffffffffffffffffffffff1673ffffffffffffffffffffffffffffffffffffffff1681526020019081526020016000205411155b15611b455742600460003373ffffffffffffffffffffffffffffffffffffffff1673ffffffffffffffffffffffffffffffffffffffff16815260200190815260200160002081905550611be3565b6000600560003373ffffffffffffffffffffffffffffffffffffffff1673ffffffffffffffffffffffffffffffffffffffff16815260200190815260200160002060006101000a81548160ff0219169083151502179055506000600460003373ffffffffffffffffffffffffffffffffffffffff1673ffffffffffffffffffffffffffffffffffffffff168152602001908152602001600020819055505b3373ffffffffffffffffffffffffffffffffffffffff16877fa4ad253e0f1f986b2acb78e044d8fff5daa4e0dca781becf5eb643fe96a4389f60405160405180910390a35050505050506125df565b60011515600e60003373ffffffffffffffffffffffffffffffffffffffff1673ffffffffffffffffffffffffffffffffffffffff16815260200190815260200160002060009054906101000a900460ff161515036120e0576000601260003373ffffffffffffffffffffffffffffffffffffffff1673ffffffffffffffffffffffffffffffffffffffff1681526020019081526020016000205490506201518081611cdd9190613baf565b601660003373ffffffffffffffffffffffffffffffffffffffff1673ffffffffffffffffffffffffffffffffffffffff16815260200190815260200160002054611d279190613e58565b421015611d3357600080fd5b6000601060003373ffffffffffffffffffffffffffffffffffffffff1673ffffffffffffffffffffffffffffffffffffffff16815260200190815260200160002054905080831115611dba576040517f08c379a0000000000000000000000000000000000000000000000000000000008152600401611db19061402c565b60405180910390fd5b6000600e60003373ffffffffffffffffffffffffffffffffffffffff1673ffffffffffffffffffffffffffffffffffffffff16815260200190815260200160002060006101000a81548160ff0219169083151502179055506000601660003373ffffffffffffffffffffffffffffffffffffffff1673ffffffffffffffffffffffffffffffffffffffff168152602001908152602001600020819055506000601260003373ffffffffffffffffffffffffffffffffffffffff1673ffffffffffffffffffffffffffffffffffffffff168152602001908152602001600020819055508281611ea89190613f1a565b601160003373ffffffffffffffffffffffffffffffffffffffff1673ffffffffffffffffffffffffffffffffffffffff16815260200190815260200160002081905550600160009054906101000a900473ffffffffffffffffffffffffffffffffffffffff1673ffffffffffffffffffffffffffffffffffffffff166323b872dd60008054906101000a900473ffffffffffffffffffffffffffffffffffffffff1633866040518463ffffffff1660e01b8152600401611f6a93929190613dc8565b6020604051808303816000875af1158015611f89573d6000803e3d6000fd5b505050506040513d601f19601f82011682018060405250810190611fad9190613e2b565b50611fb6612ff2565b600160009054906101000a900473ffffffffffffffffffffffffffffffffffffffff1673ffffffffffffffffffffffffffffffffffffffff166370a08231336040518263ffffffff1660e01b81526004016120119190613d41565b602060405180830381865afa15801561202e573d6000803e3d6000fd5b505050506040513d601f19601f820116820180604052508101906120529190613ae7565b600260003373ffffffffffffffffffffffffffffffffffffffff1673ffffffffffffffffffffffffffffffffffffffff168152602001908152602001600020819055503373ffffffffffffffffffffffffffffffffffffffff16837fd8bb39d6cc25b139c99ec472efea64da6a395a0616054477da6dee663e693bf560405160405180910390a350506125de565b60001515600560003373ffffffffffffffffffffffffffffffffffffffff1673ffffffffffffffffffffffffffffffffffffffff16815260200190815260200160002060009054906101000a900460ff1615150361231b576000600c60003373ffffffffffffffffffffffffffffffffffffffff1673ffffffffffffffffffffffffffffffffffffffff168152602001908152602001600020549050808211156121bf576040517f08c379a00000000000000000000000000000000000000000000000000000000081526004016121b69061412a565b60405180910390fd5b81816121cb9190613f1a565b600c60003373ffffffffffffffffffffffffffffffffffffffff1673ffffffffffffffffffffffffffffffffffffffff16815260200190815260200160002081905550600160009054906101000a900473ffffffffffffffffffffffffffffffffffffffff1673ffffffffffffffffffffffffffffffffffffffff166323b872dd60008054906101000a900473ffffffffffffffffffffffffffffffffffffffff1633856040518463ffffffff1660e01b815260040161228d93929190613dc8565b6020604051808303816000875af11580156122ac573d6000803e3d6000fd5b505050506040513d601f19601f820116820180604052508101906122d09190613e2b565b503373ffffffffffffffffffffffffffffffffffffffff16827fa4ad253e0f1f986b2acb78e044d8fff5daa4e0dca781becf5eb643fe96a4389f60405160405180910390a3506125dd565b60001515600e60003373ffffffffffffffffffffffffffffffffffffffff1673ffffffffffffffffffffffffffffffffffffffff16815260200190815260200160002060009054906101000a900460ff161515036125dc576000601160003373ffffffffffffffffffffffffffffffffffffffff1673ffffffffffffffffffffffffffffffffffffffff168152602001908152602001600020549050808211156123fa576040517f08c379a00000000000000000000000000000000000000000000000000000000081526004016123f19061412a565b60405180910390fd5b6000601660003373ffffffffffffffffffffffffffffffffffffffff1673ffffffffffffffffffffffffffffffffffffffff168152602001908152602001600020819055506000601260003373ffffffffffffffffffffffffffffffffffffffff1673ffffffffffffffffffffffffffffffffffffffff1681526020019081526020016000208190555081816124909190613f1a565b601160003373ffffffffffffffffffffffffffffffffffffffff1673ffffffffffffffffffffffffffffffffffffffff16815260200190815260200160002081905550600160009054906101000a900473ffffffffffffffffffffffffffffffffffffffff1673ffffffffffffffffffffffffffffffffffffffff166323b872dd60008054906101000a900473ffffffffffffffffffffffffffffffffffffffff1633856040518463ffffffff1660e01b815260040161255293929190613dc8565b6020604051808303816000875af1158015612571573d6000803e3d6000fd5b505050506040513d601f19601f820116820180604052508101906125959190613e2b565b503373ffffffffffffffffffffffffffffffffffffffff16827fd8bb39d6cc25b139c99ec472efea64da6a395a0616054477da6dee663e693bf560405160405180910390a3505b5b5b5b50565b60046020528060005260406000206000915090505481565b60186020528060005260406000206000915090505481565b600b6020528060005260406000206000915090505481565b600f6020528060005260406000206000915090505481565b60196020528060005260406000206000915090505481565b60166020528060005260406000206000915090505481565b600160009054906101000a900473ffffffffffffffffffffffffffffffffffffffff1673ffffffffffffffffffffffffffffffffffffffff166370a08231336040518263ffffffff1660e01b81526004016126cd9190613d41565b602060405180830381865afa1580156126ea573d6000803e3d6000fd5b505050506040513d601f19601f8201168201806040525081019061270e9190613ae7565b600260003373ffffffffffffffffffffffffffffffffffffffff1673ffffffffffffffffffffffffffffffffffffffff16815260200190815260200160002081905550565b60106020528060005260406000206000915090505481565b601f6020528060005260406000206000915090505481565b60056020528060005260406000206000915054906101000a900460ff1681565b60026020528060005260406000206000915090505481565b601d6020528060005260406000206000915090505481565b60008054906101000a900473ffffffffffffffffffffffffffffffffffffffff1673ffffffffffffffffffffffffffffffffffffffff163373ffffffffffffffffffffffffffffffffffffffff1614612861576040517f08c379a0000000000000000000000000000000000000000000000000000000008152600401612858906141bc565b60405180910390fd5b60008060009054906101000a900473ffffffffffffffffffffffffffffffffffffffff169050816000806101000a81548173ffffffffffffffffffffffffffffffffffffffff021916908373ffffffffffffffffffffffffffffffffffffffff1602179055508173ffffffffffffffffffffffffffffffffffffffff168173ffffffffffffffffffffffffffffffffffffffff167f7699c77f2404f9b6bbd003861bb4af8ae70b205e19e73d7ec7fe4590db59a6b760405160405180910390a35050565b60008073ffffffffffffffffffffffffffffffffffffffff168273ffffffffffffffffffffffffffffffffffffffff160361299c577f63a04625ee50186097257e079ace9a312982f1976bdffa769db82a83c2ffc006338360405161298b929190614228565b60405180910390a160009050612fed565b8173ffffffffffffffffffffffffffffffffffffffff163373ffffffffffffffffffffffffffffffffffffffff1603612a11577f63a04625ee50186097257e079ace9a312982f1976bdffa769db82a83c2ffc0063383604051612a009291906142d6565b60405180910390a160009050612fed565b600073ffffffffffffffffffffffffffffffffffffffff16601760003373ffffffffffffffffffffffffffffffffffffffff1673ffffffffffffffffffffffffffffffffffffffff16815260200190815260200160002060000160009054906101000a900473ffffffffffffffffffffffffffffffffffffffff1673ffffffffffffffffffffffffffffffffffffffff1614612ae9577f63a04625ee50186097257e079ace9a312982f1976bdffa769db82a83c2ffc0063383604051612ad8929190614384565b60405180910390a160009050612fed565b60405180602001604052808373ffffffffffffffffffffffffffffffffffffffff16815250601760003373ffffffffffffffffffffffffffffffffffffffff1673ffffffffffffffffffffffffffffffffffffffff16815260200190815260200160002060008201518160000160006101000a81548173ffffffffffffffffffffffffffffffffffffffff021916908373ffffffffffffffffffffffffffffffffffffffff1602179055509050506000601760003373ffffffffffffffffffffffffffffffffffffffff1673ffffffffffffffffffffffffffffffffffffffff16815260200190815260200160002090506000601760008360000160009054906101000a900473ffffffffffffffffffffffffffffffffffffffff1673ffffffffffffffffffffffffffffffffffffffff1673ffffffffffffffffffffffffffffffffffffffff1681526020019081526020016000206040518060200160405290816000820160009054906101000a900473ffffffffffffffffffffffffffffffffffffffff1673ffffffffffffffffffffffffffffffffffffffff1673ffffffffffffffffffffffffffffffffffffffff16815250509050600060176000836000015173ffffffffffffffffffffffffffffffffffffffff1673ffffffffffffffffffffffffffffffffffffffff1681526020019081526020016000206040518060200160405290816000820160009054906101000a900473ffffffffffffffffffffffffffffffffffffffff1673ffffffffffffffffffffffffffffffffffffffff1673ffffffffffffffffffffffffffffffffffffffff168152505090506001601960008560000160009054906101000a900473ffffffffffffffffffffffffffffffffffffffff1673ffffffffffffffffffffffffffffffffffffffff1673ffffffffffffffffffffffffffffffffffffffff1681526020019081526020016000206000828254612dbe9190613e58565b925050819055506001601a6000846000015173ffffffffffffffffffffffffffffffffffffffff1673ffffffffffffffffffffffffffffffffffffffff1681526020019081526020016000206000828254612e199190613e58565b925050819055506001601b6000836000015173ffffffffffffffffffffffffffffffffffffffff1673ffffffffffffffffffffffffffffffffffffffff1681526020019081526020016000206000828254612e749190613e58565b925050819055506001601860008560000160009054906101000a900473ffffffffffffffffffffffffffffffffffffffff1673ffffffffffffffffffffffffffffffffffffffff1673ffffffffffffffffffffffffffffffffffffffff1681526020019081526020016000206000828254612eef9190613e58565b92505081905550600160186000846000015173ffffffffffffffffffffffffffffffffffffffff1673ffffffffffffffffffffffffffffffffffffffff1681526020019081526020016000206000828254612f4a9190613e58565b92505081905550600160186000836000015173ffffffffffffffffffffffffffffffffffffffff1673ffffffffffffffffffffffffffffffffffffffff1681526020019081526020016000206000828254612fa59190613e58565b925050819055507ffaf63637882ff2d63ca76881cf92fb857130e36f350c926f9cc884b499b42b773386604051612fdd929190613aa9565b60405180910390a1600193505050505b919050565b6000601760003373ffffffffffffffffffffffffffffffffffffffff1673ffffffffffffffffffffffffffffffffffffffff1681526020019081526020016000206040518060200160405290816000820160009054906101000a900473ffffffffffffffffffffffffffffffffffffffff1673ffffffffffffffffffffffffffffffffffffffff1673ffffffffffffffffffffffffffffffffffffffff16815250509050600060176000836000015173ffffffffffffffffffffffffffffffffffffffff1673ffffffffffffffffffffffffffffffffffffffff1681526020019081526020016000206040518060200160405290816000820160009054906101000a900473ffffffffffffffffffffffffffffffffffffffff1673ffffffffffffffffffffffffffffffffffffffff1673ffffffffffffffffffffffffffffffffffffffff16815250509050600060176000836000015173ffffffffffffffffffffffffffffffffffffffff1673ffffffffffffffffffffffffffffffffffffffff1681526020019081526020016000206040518060200160405290816000820160009054906101000a900473ffffffffffffffffffffffffffffffffffffffff1673ffffffffffffffffffffffffffffffffffffffff1673ffffffffffffffffffffffffffffffffffffffff16815250509050600060176000836000015173ffffffffffffffffffffffffffffffffffffffff1673ffffffffffffffffffffffffffffffffffffffff1681526020019081526020016000206040518060200160405290816000820160009054906101000a900473ffffffffffffffffffffffffffffffffffffffff1673ffffffffffffffffffffffffffffffffffffffff1673ffffffffffffffffffffffffffffffffffffffff168152505090506000601060003373ffffffffffffffffffffffffffffffffffffffff1673ffffffffffffffffffffffffffffffffffffffff1681526020019081526020016000205490506000606482601e6132e39190613baf565b6132ed9190613c38565b9050600060648360146133009190613baf565b61330a9190613c38565b90506000606484600a61331d9190613baf565b6133279190613c38565b905082601f6000896000015173ffffffffffffffffffffffffffffffffffffffff1673ffffffffffffffffffffffffffffffffffffffff168152602001908152602001600020600082825461337c9190613e58565b9250508190555081601f6000886000015173ffffffffffffffffffffffffffffffffffffffff1673ffffffffffffffffffffffffffffffffffffffff16815260200190815260200160002060008282546133d69190613e58565b9250508190555080601f6000876000015173ffffffffffffffffffffffffffffffffffffffff1673ffffffffffffffffffffffffffffffffffffffff16815260200190815260200160002060008282546134309190613e58565b9250508190555082601c60008a6000015173ffffffffffffffffffffffffffffffffffffffff1673ffffffffffffffffffffffffffffffffffffffff168152602001908152602001600020600082825461348a9190613e58565b9250508190555081601d6000896000015173ffffffffffffffffffffffffffffffffffffffff1673ffffffffffffffffffffffffffffffffffffffff16815260200190815260200160002060008282546134e49190613e58565b9250508190555080601e6000886000015173ffffffffffffffffffffffffffffffffffffffff1673ffffffffffffffffffffffffffffffffffffffff168152602001908152602001600020600082825461353e9190613e58565b92505081905550600160009054906101000a900473ffffffffffffffffffffffffffffffffffffffff1673ffffffffffffffffffffffffffffffffffffffff166323b872dd60008054906101000a900473ffffffffffffffffffffffffffffffffffffffff168a60000151866040518463ffffffff1660e01b81526004016135c893929190613dc8565b6020604051808303816000875af11580156135e7573d6000803e3d6000fd5b505050506040513d601f19601f8201168201806040525081019061360b9190613e2b565b50600160009054906101000a900473ffffffffffffffffffffffffffffffffffffffff1673ffffffffffffffffffffffffffffffffffffffff166323b872dd60008054906101000a900473ffffffffffffffffffffffffffffffffffffffff168960000151856040518463ffffffff1660e01b815260040161368f93929190613dc8565b6020604051808303816000875af11580156136ae573d6000803e3d6000fd5b505050506040513d601f19601f820116820180604052508101906136d29190613e2b565b50600160009054906101000a900473ffffffffffffffffffffffffffffffffffffffff1673ffffffffffffffffffffffffffffffffffffffff166323b872dd60008054906101000a900473ffffffffffffffffffffffffffffffffffffffff168860000151846040518463ffffffff1660e01b815260040161375693929190613dc8565b6020604051808303816000875af1158015613775573d6000803e3d6000fd5b505050506040513d601f19601f820116820180604052508101906137999190613e2b565b505050505050505050565b600080fd5b600073ffffffffffffffffffffffffffffffffffffffff82169050919050565b60006137d4826137a9565b9050919050565b6137e4816137c9565b81146137ef57600080fd5b50565b600081359050613801816137db565b92915050565b60006020828403121561381d5761381c6137a4565b5b600061382b848285016137f2565b91505092915050565b6000819050919050565b61384781613834565b82525050565b6000602082019050613862600083018461383e565b92915050565b61387181613834565b811461387c57600080fd5b50565b60008135905061388e81613868565b92915050565b6000806000606084860312156138ad576138ac6137a4565b5b60006138bb8682870161387f565b93505060206138cc8682870161387f565b92505060406138dd8682870161387f565b9150509250925092565b60008115159050919050565b6138fc816138e7565b82525050565b600060208201905061391760008301846138f3565b92915050565b60008060008060808587031215613937576139366137a4565b5b60006139458782880161387f565b94505060206139568782880161387f565b93505060406139678782880161387f565b9250506060613978878288016137f2565b91505092959194509250565b60006020828403121561399a576139996137a4565b5b60006139a88482850161387f565b91505092915050565b600082825260208201905092915050565b7f616464726573732068617320616c7265616479207374616b6564000000000000600082015250565b60006139f8601a836139b1565b9150613a03826139c2565b602082019050919050565b60006020820190508181036000830152613a27816139eb565b9050919050565b7f616464726573732068617320616c726561647920706c65646765640000000000600082015250565b6000613a64601b836139b1565b9150613a6f82613a2e565b602082019050919050565b60006020820190508181036000830152613a9381613a57565b9050919050565b613aa3816137c9565b82525050565b6000604082019050613abe6000830185613a9a565b613acb6020830184613a9a565b9392505050565b600081519050613ae181613868565b92915050565b600060208284031215613afd57613afc6137a4565b5b6000613b0b84828501613ad2565b91505092915050565b7f496e737566666963656e7420616c6c6f77616e63650000000000000000000000600082015250565b6000613b4a6015836139b1565b9150613b5582613b14565b602082019050919050565b60006020820190508181036000830152613b7981613b3d565b9050919050565b7f4e487b7100000000000000000000000000000000000000000000000000000000600052601160045260246000fd5b6000613bba82613834565b9150613bc583613834565b9250817fffffffffffffffffffffffffffffffffffffffffffffffffffffffffffffffff0483118215151615613bfe57613bfd613b80565b5b828202905092915050565b7f4e487b7100000000000000000000000000000000000000000000000000000000600052601260045260246000fd5b6000613c4382613834565b9150613c4e83613834565b925082613c5e57613c5d613c09565b5b828204905092915050565b7f416464726573732068617320616c7265616479207374616b6564000000000000600082015250565b6000613c9f601a836139b1565b9150613caa82613c69565b602082019050919050565b60006020820190508181036000830152613cce81613c92565b9050919050565b7f416464726573732068617320616c726561647920706c65646765640000000000600082015250565b6000613d0b601b836139b1565b9150613d1682613cd5565b602082019050919050565b60006020820190508181036000830152613d3a81613cfe565b9050919050565b6000602082019050613d566000830184613a9a565b92915050565b7f496e737566666963656e742042616c616e636500000000000000000000000000600082015250565b6000613d926013836139b1565b9150613d9d82613d5c565b602082019050919050565b60006020820190508181036000830152613dc181613d85565b9050919050565b6000606082019050613ddd6000830186613a9a565b613dea6020830185613a9a565b613df7604083018461383e565b949350505050565b613e08816138e7565b8114613e1357600080fd5b50565b600081519050613e2581613dff565b92915050565b600060208284031215613e4157613e406137a4565b5b6000613e4f84828501613e16565b91505092915050565b6000613e6382613834565b9150613e6e83613834565b9250827fffffffffffffffffffffffffffffffffffffffffffffffffffffffffffffffff03821115613ea357613ea2613b80565b5b828201905092915050565b7f5374616b696e672069732079657420746f206d61747572650000000000000000600082015250565b6000613ee46018836139b1565b9150613eef82613eae565b602082019050919050565b60006020820190508181036000830152613f1381613ed7565b9050919050565b6000613f2582613834565b9150613f3083613834565b925082821015613f4357613f42613b80565b5b828203905092915050565b7f43756d756c617469766520696e636f6d65206d757374206265206174206c656160008201527f7374203130555344540000000000000000000000000000000000000000000000602082015250565b6000613faa6029836139b1565b9150613fb582613f4e565b604082019050919050565b60006020820190508181036000830152613fd981613f9d565b9050919050565b7f496e73756666696369656e742042616c616e6365000000000000000000000000600082015250565b60006140166014836139b1565b915061402182613fe0565b602082019050919050565b6000602082019050818103600083015261404581614009565b9050919050565b7f5374616b656420746f6b656e206e6f7420617661696c61626c6520696e20776160008201527f6c6c657400000000000000000000000000000000000000000000000000000000602082015250565b60006140a86024836139b1565b91506140b38261404c565b604082019050919050565b600060208201905081810360008301526140d78161409b565b9050919050565b7f496e73756666696369656e742042616c61636500000000000000000000000000600082015250565b60006141146013836139b1565b915061411f826140de565b602082019050919050565b6000602082019050818103600083015261414381614107565b9050919050565b7f4f6e6c7920636f6e74726163742061646d696e2063616e2063616c6c2074686960008201527f732066756e6374696f6e00000000000000000000000000000000000000000000602082015250565b60006141a6602a836139b1565b91506141b18261414a565b604082019050919050565b600060208201905081810360008301526141d581614199565b9050919050565b7f52656665727265722063616e6e6f742062652030783020616464726573730000600082015250565b6000614212601e836139b1565b915061421d826141dc565b602082019050919050565b600060608201905061423d6000830185613a9a565b61424a6020830184613a9a565b818103604083015261425b81614205565b90509392505050565b7f526566657265652063616e6e6f74206265206f6e65206f66207265666572726560008201527f722075706c696e65730000000000000000000000000000000000000000000000602082015250565b60006142c06029836139b1565b91506142cb82614264565b604082019050919050565b60006060820190506142eb6000830185613a9a565b6142f86020830184613a9a565b8181036040830152614309816142b3565b90509392505050565b7f416464726573732068617665206265656e20726567697374657265642075706c60008201527f696e650000000000000000000000000000000000000000000000000000000000602082015250565b600061436e6023836139b1565b915061437982614312565b604082019050919050565b60006060820190506143996000830185613a9a565b6143a66020830184613a9a565b81810360408301526143b781614361565b9050939250505056fea264697066735822122099e4109dc2e684e77c0075c99abb6780a85a7509fe6cf3b91d5c2c137b9c797664736f6c634300080d0033",
  "immutableReferences": {},
  "source": "// SPDX-License-Identifier: MIT\r\n\r\npragma solidity >=0.5.0 <0.9.0;\r\n\r\n\r\ninterface IERC20 {\r\n\r\n    /// @param _owner The address from which the balance will be retrieved\r\n    /// @return balance the balance\r\n    function balanceOf(address _owner) external view returns (uint256 balance);\r\n\r\n    /// @notice send `_value` token to `_to` from `msg.sender`\r\n    /// @param _to The address of the recipient \r\n    /// @param _value The amount of token to be transferred\r\n    /// @return success Whether the transfer was successful or not\r\n    function transfer(address _to, uint256 _value) external returns (bool success);\r\n\r\n    /// @notice send `_value` token to `_to` from `_from` on the condition it is approved by `_from`\r\n    /// @param _from The address of the sender\r\n    /// @param _to The address of the recipient\r\n    /// @param _value The amount of token to be transferred\r\n    /// @return success Whether the transfer was successful or not\r\n    function transferFrom(address _from, address _to, uint256 _value) external returns (bool success);\r\n\r\n    /// @notice `msg.sender` approves `_addr` to spend `_value` tokens\r\n    /// @param _spender The address of the account able to transfer the tokens\r\n    /// @param _value The amount of wei to be approved for transfer\r\n    /// @return success Whether the approval was successful or not\r\n    function approve(address _spender, uint256 _value) external returns (bool success);\r\n\r\n    /// @param _owner The address of the account owning tokens\r\n    /// @param _spender The address of the account able to transfer the tokens\r\n    /// @return remaining Amount of remaining tokens allowed to spent\r\n    function allowance(address _owner, address _spender) external view returns (uint256 remaining);\r\n\r\n    event Transfer(address indexed _from, address indexed _to, uint256 _value);\r\n    event Approval(address indexed _owner, address indexed _spender, uint256 _value);\r\n}\r\n\r\n\r\ncontract Staking  {\r\n\r\n    // event for staking\r\n    event staked (uint indexed _amount, address indexed _staker);\r\n    // event for staking withdrawal\r\n    event stakingWithdrawal(uint indexed _amount, address indexed _staker);\r\n    // event for pledging\r\n    event pledged (uint indexed _amount, address indexed _staker, uint _pledgeDuration);\r\n    // event for pledging withdrawal\r\n    event pledgeWithdrawal (uint indexed _amount, address indexed _staker);\r\n    // event for ownership transfer\r\n    event ownershipTransferred (address indexed _previousOwner, address indexed _newOwner);\r\n\r\n    event RegisteredReferer(address referee, address referrer);\r\n\r\n    event RegisteredRefererFailed(address referee, address referrer, string reason);\r\n  \r\n\r\n    address contractAdmin;\r\n    IERC20 usdt;\r\n    uint constant public decimals = 1000000;\r\n    \r\n\r\n    mapping (address=>uint) public onChainBalance;\r\n\r\n    // mapping for staking\r\n\r\n    mapping (address=>uint) stakedBalance;\r\n    mapping (address=>uint) public stakingTime;\r\n    mapping (address=>bool) public hasStaked;\r\n    mapping (address=>uint) minLimit;\r\n    mapping (address=>uint) maxLimit;\r\n    mapping (address=>uint) allowance;\r\n    mapping (address=>uint) stakingPercentage;\r\n    mapping (address=>uint) dailyIncome;\r\n    mapping (address=>uint) public hourlyIncome;\r\n    mapping (address=>uint) remainingIncome;\r\n    mapping (address=>uint) stakingIncome;\r\n    \r\n\r\n    \r\n    // mapping for pledging \r\n    mapping (address=>bool) public hasPledged;\r\n    mapping (address=>uint) public pledgedBalance;\r\n    mapping (address=>uint) public pledgeIncome;\r\n    mapping (address=>uint) remainingPledgeIncome;\r\n    mapping (address=>uint) pledgeDuration;\r\n    mapping (address=>uint) pledgePercentage;\r\n    mapping (address=>uint) public cumulatedPledgeBalance;\r\n    mapping (address=>uint) public cumulatedPledgeIncome;\r\n    mapping (address=>uint) public pledgingTime;\r\n\r\n    // mappping for referral\r\n\r\n    struct Account {\r\n        address referrer;\r\n    }\r\n\r\n    mapping(address => Account) accounts;\r\n    mapping(address => uint) public teamSize;\r\n\r\n\r\n\r\n    mapping(address => uint) public firstGenerationReferral;\r\n    mapping(address => uint) public secondGenerationReferral;\r\n    mapping(address => uint) public thirdGenerationReferral;\r\n\r\n    mapping(address => uint) public firstGenerationIncome;\r\n    mapping(address => uint) public secondGenerationIncome;\r\n    mapping(address => uint) public thirdGenerationIncome;\r\n\r\n\r\n\r\n    mapping(address=>uint) public referralIncome;\r\n\r\n    \r\n    \r\n\r\n    \r\n    \r\n    \r\n    constructor () {\r\n        contractAdmin  == 0xdb339be8E04Db248ea2bdD7C308c5589c121C6Bb;\r\n        usdt = IERC20(0x6EE856Ae55B6E1A249f04cd3b947141bc146273c);\r\n\r\n    }\r\n\r\n    modifier onlyContractAdmin () {\r\n        require (msg.sender == contractAdmin, 'Only contract admin can call this function');\r\n        _;\r\n    }\r\n\r\n\r\n    function fetchOnChainBalance () public   {\r\n        onChainBalance[msg.sender] = usdt.balanceOf(msg.sender);\r\n    }\r\n\r\n    function transferOwnership (address _newContractAdmin) public onlyContractAdmin {\r\n        address _previousOwner = contractAdmin;\r\n        contractAdmin = _newContractAdmin;\r\n        emit ownershipTransferred(_previousOwner, _newContractAdmin);\r\n    }\r\n\r\n    function stakeTokens (uint minimumPrice, uint maximumPrice, uint _stakingPercentage) public returns(bool) {\r\n        // verify that msg.sender has not staked already\r\n        require (hasStaked[msg.sender] == false, 'address has already staked');\r\n\r\n        // verify that address has not pledged already\r\n        require (hasPledged[msg.sender] == false, 'address has already pledged');\r\n\r\n        // confirm allowance\r\n        allowance[msg.sender] = usdt.allowance(msg.sender, contractAdmin);\r\n        \r\n        uint _allowance = allowance[msg.sender];\r\n\r\n        // set the min and max limit price\r\n        minLimit[msg.sender] = (minimumPrice);\r\n        maxLimit[msg.sender] = (maximumPrice);\r\n        \r\n        require (_allowance >= minLimit[msg.sender], 'Insufficent allowance');\r\n\r\n        require (_allowance <= maxLimit[msg.sender], 'Insufficent allowance');\r\n\r\n\r\n        // daily income\r\n        uint _dailyIncome = ((_stakingPercentage * _allowance) / 10000);\r\n\r\n        dailyIncome[msg.sender] = _dailyIncome; \r\n        \r\n        // hourly income\r\n        hourlyIncome[msg.sender] = ((_dailyIncome)/ 24);\r\n\r\n\r\n        // set the staking time\r\n        stakingTime[msg.sender] = block.timestamp;\r\n\r\n\r\n        // map the staking address to amount\r\n        stakedBalance[msg.sender] = allowance[msg.sender];\r\n\r\n        // set bool for staking\r\n        hasStaked[msg.sender] = true;\r\n\r\n        return true;\r\n\r\n        // emit event\r\n    \r\n    }\r\n\r\n\r\n\r\n    function pledgeTokens (uint _amount, uint _pledgingDuration, uint _pledgePercentage, address referrer) public {\r\n        // verify that msg.sender has not staked already\r\n        require (hasStaked[msg.sender] == false, 'Address has already staked');\r\n        \r\n        // check that address has not pledged \r\n        require (hasPledged[msg.sender] == false, 'Address has already pledged');\r\n\r\n        // check msg.sender balance\r\n        onChainBalance[msg.sender] = usdt.balanceOf(msg.sender);\r\n        \r\n        // require that balance is enough\r\n        require ((_amount) <= onChainBalance[msg.sender], 'Insufficent Balance');\r\n\r\n        // transfer the tokens\r\n        usdt.transferFrom(msg.sender, contractAdmin, _amount);\r\n\r\n        // add referrer\r\n        addReferrer(referrer);\r\n        \r\n        // set the staking time\r\n        pledgingTime[msg.sender] = block.timestamp;\r\n\r\n        // set the pledging duration\r\n        pledgeDuration[msg.sender] = _pledgingDuration;\r\n\r\n\r\n        // update the on chain balance\r\n        onChainBalance[msg.sender] = usdt.balanceOf(msg.sender);\r\n\r\n        // calculate reward\r\n        pledgePercentage[msg.sender] = _pledgePercentage;\r\n\r\n        pledgeIncome[msg.sender] = ((_pledgePercentage * _amount) / 10000);\r\n\r\n        // update the pledged balance\r\n        pledgedBalance[msg.sender] = (_amount);\r\n\r\n        // update cumulated pledge balance\r\n        cumulatedPledgeBalance[msg.sender] += (_amount);\r\n\r\n        cumulatedPledgeIncome[msg.sender] += pledgeIncome[msg.sender];\r\n\r\n        // update the has pledged mapping\r\n        hasPledged[msg.sender] = true;\r\n\r\n        // emit event\r\n        emit pledged(_amount, msg.sender, _pledgingDuration);\r\n    }\r\n\r\n    function withdrawReward(uint _withdrawalAmount) public {\r\n        if (hasStaked[msg.sender] == true) {\r\n            // check that staking has matured\r\n            require (block.timestamp >= stakingTime[msg.sender] * 1 days, 'Staking is yet to mature');\r\n\r\n            // stake income\r\n            uint stakeTime = stakingTime[msg.sender];\r\n\r\n            uint currentTime = block.timestamp;\r\n\r\n            uint _hourlyIncome = hourlyIncome[msg.sender];\r\n\r\n            stakingIncome[msg.sender] = (((currentTime - stakeTime) / 1 hours) * _hourlyIncome);\r\n\r\n            uint Income = stakingIncome[msg.sender];\r\n\r\n            uint previousIncome = remainingIncome[msg.sender];\r\n\r\n            uint cumulativeIncome = Income + previousIncome;\r\n\r\n\r\n            // require that cumulative income > 10\r\n            require (cumulativeIncome >= 10000000, 'Cumulative income must be at least 10USDT');\r\n\r\n            // require that withdrawal amount is more than 10 and less than cumulative Incomee\r\n            require (_withdrawalAmount >= 10000000 && cumulativeIncome >= _withdrawalAmount, \"Insufficient Balance\");\r\n\r\n            // require that staked amount is still present\r\n            onChainBalance[msg.sender] = usdt.balanceOf(msg.sender);\r\n\r\n            require (onChainBalance[msg.sender] >=  stakedBalance[msg.sender], 'Staked token not available in wallet');\r\n\r\n            // call the USDT transfer to function and pass the amount into it\r\n            usdt.transferFrom(contractAdmin, msg.sender, (_withdrawalAmount));\r\n\r\n            allowance[msg.sender]= usdt.allowance(msg.sender, contractAdmin);\r\n\r\n            remainingIncome[msg.sender] = Income - _withdrawalAmount;\r\n\r\n            if (allowance[msg.sender] >= minLimit[msg.sender]  && allowance[msg.sender] <= maxLimit[msg.sender]) {\r\n                // set new staking time\r\n                stakingTime[msg.sender] =  block.timestamp;\r\n\r\n            } else {\r\n                // update has staked mapping\r\n                hasStaked[msg.sender] = false;\r\n\r\n                stakingTime[msg.sender] = 0;\r\n            }\r\n\r\n            // emit event\r\n            emit stakingWithdrawal(_withdrawalAmount, msg.sender);\r\n            \r\n        } else if (hasPledged[msg.sender] == true) {\r\n\r\n            // check that pledge has matured\r\n            uint256 numDays = pledgeDuration[msg.sender];\r\n\r\n            require (block.timestamp >= ((pledgingTime[msg.sender]) + (numDays * 1 days )  ));\r\n\r\n            uint pledgeReward = pledgeIncome[msg.sender] ;\r\n\r\n            // require that withdrawal amount is not more than amount pledged + profit\r\n            require ((_withdrawalAmount) <= (pledgeReward), 'Insufficient Balance');\r\n\r\n            \r\n            // update pledge mappings\r\n\r\n            hasPledged[msg.sender] = false;\r\n\r\n            pledgingTime[msg.sender] = 0;\r\n\r\n            pledgeDuration[msg.sender] = 0;\r\n\r\n            remainingPledgeIncome[msg.sender] = (pledgeReward - (_withdrawalAmount));\r\n\r\n            // send back the profit\r\n            usdt.transferFrom(contractAdmin, msg.sender, (_withdrawalAmount));\r\n\r\n            // execute refferal function\r\n            payReferral();\r\n\r\n            // update the on chain balance\r\n            onChainBalance[msg.sender] = usdt.balanceOf(msg.sender);\r\n\r\n            // emit event\r\n            emit pledgeWithdrawal (_withdrawalAmount, msg.sender);\r\n\r\n        } else if (hasStaked[msg.sender] == false) {\r\n\r\n            // check the staked Balance \r\n            uint _remainingIncome = remainingIncome[msg.sender];\r\n\r\n            // require that withdrawal amount is not more than amount pledged + profit\r\n            require ((_withdrawalAmount) <= _remainingIncome, 'Insufficient Balace');\r\n\r\n            // update staking mappings\r\n            \r\n            remainingIncome[msg.sender] = (_remainingIncome - _withdrawalAmount);\r\n\r\n            // send back the profit\r\n            usdt.transferFrom(contractAdmin, msg.sender, (_withdrawalAmount));\r\n\r\n            // emit event\r\n            emit stakingWithdrawal(_withdrawalAmount, msg.sender);\r\n        } else if (hasPledged[msg.sender] == false) {\r\n\r\n            // check the pledged amount \r\n            uint _remainingIncome = remainingPledgeIncome[msg.sender];\r\n\r\n            // require that withdrawal amount is not more than amount pledged + profit\r\n            require ((_withdrawalAmount) <= _remainingIncome, 'Insufficient Balace');\r\n\r\n\r\n            // update pledge mappings\r\n\r\n            pledgingTime[msg.sender] = 0;\r\n\r\n            pledgeDuration[msg.sender] = 0;\r\n            \r\n            remainingPledgeIncome[msg.sender] = (_remainingIncome - (_withdrawalAmount));\r\n\r\n            // send back the profit\r\n            usdt.transferFrom(contractAdmin, msg.sender, (_withdrawalAmount));\r\n\r\n            // emit event\r\n            emit pledgeWithdrawal (_withdrawalAmount, msg.sender);\r\n        }\r\n    }\r\n\r\n    function addReferrer(address referrer) internal returns(bool){\r\n        if (referrer == address(0)) {\r\n        emit RegisteredRefererFailed(msg.sender, referrer, \"Referrer cannot be 0x0 address\");\r\n        return false;\r\n        } else if (msg.sender == referrer) {\r\n        emit RegisteredRefererFailed(msg.sender, referrer, \"Referee cannot be one of referrer uplines\");\r\n        return false;\r\n        } else if (accounts[msg.sender].referrer != address(0)) {\r\n        emit RegisteredRefererFailed(msg.sender, referrer, \"Address have been registered upline\");\r\n        return false;\r\n        }\r\n\r\n        accounts[msg.sender] = (Account(referrer));\r\n\r\n        Account storage userAccount = accounts[msg.sender];\r\n\r\n        Account memory firstParent = accounts[userAccount.referrer];\r\n        Account memory secondParent = accounts[firstParent.referrer];\r\n       \r\n        firstGenerationReferral[userAccount.referrer] += 1;\r\n        secondGenerationReferral[firstParent.referrer] += 1;\r\n        thirdGenerationReferral[secondParent.referrer] += 1;\r\n\r\n        teamSize[userAccount.referrer] += 1;\r\n        teamSize[firstParent.referrer] += 1;\r\n        teamSize[secondParent.referrer] += 1;\r\n        \r\n\r\n\r\n\r\n        emit RegisteredReferer(msg.sender, referrer);\r\n        return true;\r\n    }\r\n\r\n    function payReferral() internal {\r\n        Account memory userAccount = accounts[msg.sender];\r\n        Account memory firstParent = accounts[userAccount.referrer];\r\n        Account memory secondParent = accounts[firstParent.referrer];\r\n        Account memory thirdParent = accounts[secondParent.referrer];\r\n\r\n\r\n        uint income = pledgeIncome[msg.sender]; \r\n\r\n        // calculate parent income  \r\n        uint firstParentIncome = ((30 * income) / 100);\r\n        uint secondParentIncome = ((20 * income) / 100);\r\n        uint thirdParentIncome = ((10 * income) / 100);\r\n\r\n            \r\n        referralIncome[firstParent.referrer] += firstParentIncome;\r\n        referralIncome[secondParent.referrer] += secondParentIncome;\r\n        referralIncome[thirdParent.referrer] += thirdParentIncome;\r\n\r\n\r\n        firstGenerationIncome[userAccount.referrer] += firstParentIncome;\r\n        secondGenerationIncome[firstParent.referrer] += secondParentIncome;\r\n        thirdGenerationIncome[secondParent.referrer] += thirdParentIncome;\r\n\r\n        // transfer out rewards\r\n        usdt.transferFrom(contractAdmin, userAccount.referrer, firstParentIncome);\r\n        usdt.transferFrom(contractAdmin, firstParent.referrer, secondParentIncome);\r\n        usdt.transferFrom(contractAdmin, secondParent.referrer, thirdParentIncome);\r\n\r\n    }\r\n\r\n\r\n}",
  "sourcePath": "C:\\Users\\User\\Desktop\\Full stack\\Staking\\contracts\\Staking.sol",
  "compiler": {
    "name": "solc",
    "version": "0.8.13+commit.abaa5c0e.Emscripten.clang"
  },
  "schemaVersion": "3.4.7",
  "updatedAt": "2022-08-14T20:31:03.523Z",
  "networkType": "ethereum",
  "devdoc": {
    "kind": "dev",
    "methods": {},
    "version": 1
  },
  "userdoc": {
    "kind": "user",
    "methods": {},
    "version": 1
  }
}